{
  "_format": "hh-sol-artifact-1",
  "contractName": "H2OToken",
  "sourceName": "contracts/tokens/H2OToken.sol",
  "abi": [
    {
      "inputs": [
        {
          "internalType": "address",
          "name": "admin_",
          "type": "address"
        }
      ],
      "stateMutability": "nonpayable",
      "type": "constructor"
    },
    {
      "anonymous": false,
      "inputs": [
        {
          "indexed": true,
          "internalType": "address",
          "name": "owner",
          "type": "address"
        },
        {
          "indexed": true,
          "internalType": "address",
          "name": "spender",
          "type": "address"
        },
        {
          "indexed": false,
          "internalType": "uint256",
          "name": "value",
          "type": "uint256"
        }
      ],
      "name": "Approval",
      "type": "event"
    },
    {
      "anonymous": false,
      "inputs": [
        {
          "indexed": true,
          "internalType": "bytes32",
          "name": "role",
          "type": "bytes32"
        },
        {
          "indexed": true,
          "internalType": "bytes32",
          "name": "previousAdminRole",
          "type": "bytes32"
        },
        {
          "indexed": true,
          "internalType": "bytes32",
          "name": "newAdminRole",
          "type": "bytes32"
        }
      ],
      "name": "RoleAdminChanged",
      "type": "event"
    },
    {
      "anonymous": false,
      "inputs": [
        {
          "indexed": true,
          "internalType": "bytes32",
          "name": "role",
          "type": "bytes32"
        },
        {
          "indexed": true,
          "internalType": "address",
          "name": "account",
          "type": "address"
        },
        {
          "indexed": true,
          "internalType": "address",
          "name": "sender",
          "type": "address"
        }
      ],
      "name": "RoleGranted",
      "type": "event"
    },
    {
      "anonymous": false,
      "inputs": [
        {
          "indexed": true,
          "internalType": "bytes32",
          "name": "role",
          "type": "bytes32"
        },
        {
          "indexed": true,
          "internalType": "address",
          "name": "account",
          "type": "address"
        },
        {
          "indexed": true,
          "internalType": "address",
          "name": "sender",
          "type": "address"
        }
      ],
      "name": "RoleRevoked",
      "type": "event"
    },
    {
      "anonymous": false,
      "inputs": [
        {
          "indexed": true,
          "internalType": "address",
          "name": "from",
          "type": "address"
        },
        {
          "indexed": true,
          "internalType": "address",
          "name": "to",
          "type": "address"
        },
        {
          "indexed": false,
          "internalType": "uint256",
          "name": "value",
          "type": "uint256"
        }
      ],
      "name": "Transfer",
      "type": "event"
    },
    {
      "inputs": [],
      "name": "DEFAULT_ADMIN_ROLE",
      "outputs": [
        {
          "internalType": "bytes32",
          "name": "",
          "type": "bytes32"
        }
      ],
      "stateMutability": "view",
      "type": "function"
    },
    {
      "inputs": [],
      "name": "MINTER_BURNER_ROLE",
      "outputs": [
        {
          "internalType": "bytes32",
          "name": "",
          "type": "bytes32"
        }
      ],
      "stateMutability": "view",
      "type": "function"
    },
    {
      "inputs": [
        {
          "internalType": "address",
          "name": "owner",
          "type": "address"
        },
        {
          "internalType": "address",
          "name": "spender",
          "type": "address"
        }
      ],
      "name": "allowance",
      "outputs": [
        {
          "internalType": "uint256",
          "name": "",
          "type": "uint256"
        }
      ],
      "stateMutability": "view",
      "type": "function"
    },
    {
      "inputs": [
        {
          "internalType": "address",
          "name": "spender",
          "type": "address"
        },
        {
          "internalType": "uint256",
          "name": "amount",
          "type": "uint256"
        }
      ],
      "name": "approve",
      "outputs": [
        {
          "internalType": "bool",
          "name": "",
          "type": "bool"
        }
      ],
      "stateMutability": "nonpayable",
      "type": "function"
    },
    {
      "inputs": [
        {
          "internalType": "address",
          "name": "account",
          "type": "address"
        }
      ],
      "name": "balanceOf",
      "outputs": [
        {
          "internalType": "uint256",
          "name": "",
          "type": "uint256"
        }
      ],
      "stateMutability": "view",
      "type": "function"
    },
    {
      "inputs": [
        {
          "internalType": "address",
          "name": "account",
          "type": "address"
        },
        {
          "internalType": "uint256",
          "name": "value",
          "type": "uint256"
        }
      ],
      "name": "burn",
      "outputs": [],
      "stateMutability": "nonpayable",
      "type": "function"
    },
    {
      "inputs": [],
      "name": "decimals",
      "outputs": [
        {
          "internalType": "uint8",
          "name": "",
          "type": "uint8"
        }
      ],
      "stateMutability": "view",
      "type": "function"
    },
    {
      "inputs": [
        {
          "internalType": "address",
          "name": "spender",
          "type": "address"
        },
        {
          "internalType": "uint256",
          "name": "subtractedValue",
          "type": "uint256"
        }
      ],
      "name": "decreaseAllowance",
      "outputs": [
        {
          "internalType": "bool",
          "name": "",
          "type": "bool"
        }
      ],
      "stateMutability": "nonpayable",
      "type": "function"
    },
    {
      "inputs": [
        {
          "internalType": "bytes32",
          "name": "role",
          "type": "bytes32"
        }
      ],
      "name": "getRoleAdmin",
      "outputs": [
        {
          "internalType": "bytes32",
          "name": "",
          "type": "bytes32"
        }
      ],
      "stateMutability": "view",
      "type": "function"
    },
    {
      "inputs": [
        {
          "internalType": "bytes32",
          "name": "role",
          "type": "bytes32"
        },
        {
          "internalType": "uint256",
          "name": "index",
          "type": "uint256"
        }
      ],
      "name": "getRoleMember",
      "outputs": [
        {
          "internalType": "address",
          "name": "",
          "type": "address"
        }
      ],
      "stateMutability": "view",
      "type": "function"
    },
    {
      "inputs": [
        {
          "internalType": "bytes32",
          "name": "role",
          "type": "bytes32"
        }
      ],
      "name": "getRoleMemberCount",
      "outputs": [
        {
          "internalType": "uint256",
          "name": "",
          "type": "uint256"
        }
      ],
      "stateMutability": "view",
      "type": "function"
    },
    {
      "inputs": [
        {
          "internalType": "bytes32",
          "name": "role",
          "type": "bytes32"
        },
        {
          "internalType": "address",
          "name": "account",
          "type": "address"
        }
      ],
      "name": "grantRole",
      "outputs": [],
      "stateMutability": "nonpayable",
      "type": "function"
    },
    {
      "inputs": [
        {
          "internalType": "bytes32",
          "name": "role",
          "type": "bytes32"
        },
        {
          "internalType": "address",
          "name": "account",
          "type": "address"
        }
      ],
      "name": "hasRole",
      "outputs": [
        {
          "internalType": "bool",
          "name": "",
          "type": "bool"
        }
      ],
      "stateMutability": "view",
      "type": "function"
    },
    {
      "inputs": [
        {
          "internalType": "address",
          "name": "spender",
          "type": "address"
        },
        {
          "internalType": "uint256",
          "name": "addedValue",
          "type": "uint256"
        }
      ],
      "name": "increaseAllowance",
      "outputs": [
        {
          "internalType": "bool",
          "name": "",
          "type": "bool"
        }
      ],
      "stateMutability": "nonpayable",
      "type": "function"
    },
    {
      "inputs": [
        {
          "internalType": "address",
          "name": "account",
          "type": "address"
        },
        {
          "internalType": "uint256",
          "name": "value",
          "type": "uint256"
        }
      ],
      "name": "mint",
      "outputs": [],
      "stateMutability": "nonpayable",
      "type": "function"
    },
    {
      "inputs": [],
      "name": "name",
      "outputs": [
        {
          "internalType": "string",
          "name": "",
          "type": "string"
        }
      ],
      "stateMutability": "view",
      "type": "function"
    },
    {
      "inputs": [
        {
          "internalType": "bytes32",
          "name": "role",
          "type": "bytes32"
        },
        {
          "internalType": "address",
          "name": "account",
          "type": "address"
        }
      ],
      "name": "renounceRole",
      "outputs": [],
      "stateMutability": "nonpayable",
      "type": "function"
    },
    {
      "inputs": [
        {
          "internalType": "bytes32",
          "name": "role",
          "type": "bytes32"
        },
        {
          "internalType": "address",
          "name": "account",
          "type": "address"
        }
      ],
      "name": "revokeRole",
      "outputs": [],
      "stateMutability": "nonpayable",
      "type": "function"
    },
    {
      "inputs": [
        {
          "internalType": "bytes4",
          "name": "interfaceId",
          "type": "bytes4"
        }
      ],
      "name": "supportsInterface",
      "outputs": [
        {
          "internalType": "bool",
          "name": "",
          "type": "bool"
        }
      ],
      "stateMutability": "view",
      "type": "function"
    },
    {
      "inputs": [],
      "name": "symbol",
      "outputs": [
        {
          "internalType": "string",
          "name": "",
          "type": "string"
        }
      ],
      "stateMutability": "view",
      "type": "function"
    },
    {
      "inputs": [],
      "name": "totalSupply",
      "outputs": [
        {
          "internalType": "uint256",
          "name": "",
          "type": "uint256"
        }
      ],
      "stateMutability": "view",
      "type": "function"
    },
    {
      "inputs": [
        {
          "internalType": "address",
          "name": "to",
          "type": "address"
        },
        {
          "internalType": "uint256",
          "name": "amount",
          "type": "uint256"
        }
      ],
      "name": "transfer",
      "outputs": [
        {
          "internalType": "bool",
          "name": "",
          "type": "bool"
        }
      ],
      "stateMutability": "nonpayable",
      "type": "function"
    },
    {
      "inputs": [
        {
          "internalType": "address",
          "name": "from",
          "type": "address"
        },
        {
          "internalType": "address",
          "name": "to",
          "type": "address"
        },
        {
          "internalType": "uint256",
          "name": "amount",
          "type": "uint256"
        }
      ],
      "name": "transferFrom",
      "outputs": [
        {
          "internalType": "bool",
          "name": "",
          "type": "bool"
        }
      ],
      "stateMutability": "nonpayable",
      "type": "function"
    }
  ],
  "bytecode": "0x60806040523480156200001157600080fd5b50604051620032ce380380620032ce8339818101604052810190620000379190620005f8565b6040518060400160405280600381526020017f48324f00000000000000000000000000000000000000000000000000000000008152506040518060400160405280600381526020017f48324f00000000000000000000000000000000000000000000000000000000008152508282828160039080519060200190620000be92919062000531565b508060049080519060200190620000d792919062000531565b505050620000ef6000801b826200011660201b60201c565b5050506200010f336a084595161401484a0000006200012c60201b60201c565b5062000810565b620001288282620002a560201b60201c565b5050565b600073ffffffffffffffffffffffffffffffffffffffff168273ffffffffffffffffffffffffffffffffffffffff1614156200019f576040517f08c379a0000000000000000000000000000000000000000000000000000000008152600401620001969062000677565b60405180910390fd5b620001b360008383620002ed60201b60201c565b8060026000828254620001c79190620006c7565b92505081905550806000808473ffffffffffffffffffffffffffffffffffffffff1673ffffffffffffffffffffffffffffffffffffffff16815260200190815260200160002060008282546200021e9190620006c7565b925050819055508173ffffffffffffffffffffffffffffffffffffffff16600073ffffffffffffffffffffffffffffffffffffffff167fddf252ad1be2c89b69c2b068fc378daa952ba7f163c4a11628f55a4df523b3ef8360405162000285919062000699565b60405180910390a3620002a160008383620002f260201b60201c565b5050565b620002bc8282620002f760201b62000bbb1760201c565b620002e88160066000858152602001908152602001600020620003e960201b62000c9c1790919060201c565b505050565b505050565b505050565b6200030982826200042160201b60201c565b620003e55760016005600084815260200190815260200160002060000160008373ffffffffffffffffffffffffffffffffffffffff1673ffffffffffffffffffffffffffffffffffffffff16815260200190815260200160002060006101000a81548160ff0219169083151502179055506200038a6200048c60201b60201c565b73ffffffffffffffffffffffffffffffffffffffff168173ffffffffffffffffffffffffffffffffffffffff16837f2f8788117e7eff1d82e926ec794901d17c78024a50270940304540a733656f0d60405160405180910390a45b5050565b600062000419836000018373ffffffffffffffffffffffffffffffffffffffff1660001b6200049460201b60201c565b905092915050565b60006005600084815260200190815260200160002060000160008373ffffffffffffffffffffffffffffffffffffffff1673ffffffffffffffffffffffffffffffffffffffff16815260200190815260200160002060009054906101000a900460ff16905092915050565b600033905090565b6000620004a883836200050e60201b60201c565b6200050357826000018290806001815401808255809150506001900390600052602060002001600090919091909150558260000180549050836001016000848152602001908152602001600020819055506001905062000508565b600090505b92915050565b600080836001016000848152602001908152602001600020541415905092915050565b8280546200053f9062000762565b90600052602060002090601f016020900481019282620005635760008555620005af565b82601f106200057e57805160ff1916838001178555620005af565b82800160010185558215620005af579182015b82811115620005ae57825182559160200191906001019062000591565b5b509050620005be9190620005c2565b5090565b5b80821115620005dd576000816000905550600101620005c3565b5090565b600081519050620005f281620007f6565b92915050565b6000602082840312156200060b57600080fd5b60006200061b84828501620005e1565b91505092915050565b600062000633601f83620006b6565b91507f45524332303a206d696e7420746f20746865207a65726f2061646472657373006000830152602082019050919050565b620006718162000758565b82525050565b60006020820190508181036000830152620006928162000624565b9050919050565b6000602082019050620006b0600083018462000666565b92915050565b600082825260208201905092915050565b6000620006d48262000758565b9150620006e18362000758565b9250827fffffffffffffffffffffffffffffffffffffffffffffffffffffffffffffffff0382111562000719576200071862000798565b5b828201905092915050565b6000620007318262000738565b9050919050565b600073ffffffffffffffffffffffffffffffffffffffff82169050919050565b6000819050919050565b600060028204905060018216806200077b57607f821691505b60208210811415620007925762000791620007c7565b5b50919050565b7f4e487b7100000000000000000000000000000000000000000000000000000000600052601160045260246000fd5b7f4e487b7100000000000000000000000000000000000000000000000000000000600052602260045260246000fd5b620008018162000724565b81146200080d57600080fd5b50565b612aae80620008206000396000f3fe608060405234801561001057600080fd5b506004361061014d5760003560e01c806370a08231116100c3578063a217fddf1161007c578063a217fddf146103d8578063a457c2d7146103f6578063a9059cbb14610426578063ca15c87314610456578063d547741f14610486578063dd62ed3e146104a25761014d565b806370a08231146102f057806372c32860146103205780639010d07c1461033e57806391d148541461036e57806395d89b411461039e5780639dc29fac146103bc5761014d565b8063248a9ca311610115578063248a9ca31461021e5780632f2ff15d1461024e578063313ce5671461026a57806336568abe1461028857806339509351146102a457806340c10f19146102d45761014d565b806301ffc9a71461015257806306fdde0314610182578063095ea7b3146101a057806318160ddd146101d057806323b872dd146101ee575b600080fd5b61016c60048036038101906101679190611f71565b6104d2565b604051610179919061257a565b60405180910390f35b61018a61054c565b60405161019791906125b0565b60405180910390f35b6101ba60048036038101906101b59190611e94565b6105de565b6040516101c7919061257a565b60405180910390f35b6101d8610601565b6040516101e59190612752565b60405180910390f35b61020860048036038101906102039190611e45565b61060b565b604051610215919061257a565b60405180910390f35b61023860048036038101906102339190611ed0565b61063a565b6040516102459190612595565b60405180910390f35b61026860048036038101906102639190611ef9565b61065a565b005b610272610683565b60405161027f919061276d565b60405180910390f35b6102a2600480360381019061029d9190611ef9565b61068c565b005b6102be60048036038101906102b99190611e94565b61070f565b6040516102cb919061257a565b60405180910390f35b6102ee60048036038101906102e99190611e94565b6107b9565b005b61030a60048036038101906103059190611de0565b6107fa565b6040516103179190612752565b60405180910390f35b610328610842565b6040516103359190612595565b60405180910390f35b61035860048036038101906103539190611f35565b610866565b604051610365919061255f565b60405180910390f35b61038860048036038101906103839190611ef9565b610895565b604051610395919061257a565b60405180910390f35b6103a6610900565b6040516103b391906125b0565b60405180910390f35b6103d660048036038101906103d19190611e94565b610992565b005b6103e06109d3565b6040516103ed9190612595565b60405180910390f35b610410600480360381019061040b9190611e94565b6109da565b60405161041d919061257a565b60405180910390f35b610440600480360381019061043b9190611e94565b610ac4565b60405161044d919061257a565b60405180910390f35b610470600480360381019061046b9190611ed0565b610ae7565b60405161047d9190612752565b60405180910390f35b6104a0600480360381019061049b9190611ef9565b610b0b565b005b6104bc60048036038101906104b79190611e09565b610b34565b6040516104c99190612752565b60405180910390f35b60007f5a05180f000000000000000000000000000000000000000000000000000000007bffffffffffffffffffffffffffffffffffffffffffffffffffffffff1916827bffffffffffffffffffffffffffffffffffffffffffffffffffffffff19161480610545575061054482610ccc565b5b9050919050565b60606003805461055b9061297b565b80601f01602080910402602001604051908101604052809291908181526020018280546105879061297b565b80156105d45780601f106105a9576101008083540402835291602001916105d4565b820191906000526020600020905b8154815290600101906020018083116105b757829003601f168201915b5050505050905090565b6000806105e9610d46565b90506105f6818585610d4e565b600191505092915050565b6000600254905090565b600080610616610d46565b9050610623858285610f19565b61062e858585610fa5565b60019150509392505050565b600060056000838152602001908152602001600020600101549050919050565b6106638261063a565b6106748161066f610d46565b611226565b61067e83836112c3565b505050565b60006012905090565b610694610d46565b73ffffffffffffffffffffffffffffffffffffffff168173ffffffffffffffffffffffffffffffffffffffff1614610701576040517f08c379a00000000000000000000000000000000000000000000000000000000081526004016106f890612712565b60405180910390fd5b61070b82826112f7565b5050565b60008061071a610d46565b90506107ae818585600160008673ffffffffffffffffffffffffffffffffffffffff1673ffffffffffffffffffffffffffffffffffffffff16815260200190815260200160002060008973ffffffffffffffffffffffffffffffffffffffff1673ffffffffffffffffffffffffffffffffffffffff168152602001908152602001600020546107a991906127af565b610d4e565b600191505092915050565b7fcfd53186d792f1ec9d0679afc2dc3ffc86fc31fe1e0f342b838eb6c3eade62b36107eb816107e6610d46565b611226565b6107f5838361132b565b505050565b60008060008373ffffffffffffffffffffffffffffffffffffffff1673ffffffffffffffffffffffffffffffffffffffff168152602001908152602001600020549050919050565b7fcfd53186d792f1ec9d0679afc2dc3ffc86fc31fe1e0f342b838eb6c3eade62b381565b600061088d826006600086815260200190815260200160002061148b90919063ffffffff16565b905092915050565b60006005600084815260200190815260200160002060000160008373ffffffffffffffffffffffffffffffffffffffff1673ffffffffffffffffffffffffffffffffffffffff16815260200190815260200160002060009054906101000a900460ff16905092915050565b60606004805461090f9061297b565b80601f016020809104026020016040519081016040528092919081815260200182805461093b9061297b565b80156109885780601f1061095d57610100808354040283529160200191610988565b820191906000526020600020905b81548152906001019060200180831161096b57829003601f168201915b5050505050905090565b7fcfd53186d792f1ec9d0679afc2dc3ffc86fc31fe1e0f342b838eb6c3eade62b36109c4816109bf610d46565b611226565b6109ce83836114a5565b505050565b6000801b81565b6000806109e5610d46565b90506000600160008373ffffffffffffffffffffffffffffffffffffffff1673ffffffffffffffffffffffffffffffffffffffff16815260200190815260200160002060008673ffffffffffffffffffffffffffffffffffffffff1673ffffffffffffffffffffffffffffffffffffffff16815260200190815260200160002054905083811015610aab576040517f08c379a0000000000000000000000000000000000000000000000000000000008152600401610aa2906126f2565b60405180910390fd5b610ab88286868403610d4e565b60019250505092915050565b600080610acf610d46565b9050610adc818585610fa5565b600191505092915050565b6000610b046006600084815260200190815260200160002061167c565b9050919050565b610b148261063a565b610b2581610b20610d46565b611226565b610b2f83836112f7565b505050565b6000600160008473ffffffffffffffffffffffffffffffffffffffff1673ffffffffffffffffffffffffffffffffffffffff16815260200190815260200160002060008373ffffffffffffffffffffffffffffffffffffffff1673ffffffffffffffffffffffffffffffffffffffff16815260200190815260200160002054905092915050565b610bc58282610895565b610c985760016005600084815260200190815260200160002060000160008373ffffffffffffffffffffffffffffffffffffffff1673ffffffffffffffffffffffffffffffffffffffff16815260200190815260200160002060006101000a81548160ff021916908315150217905550610c3d610d46565b73ffffffffffffffffffffffffffffffffffffffff168173ffffffffffffffffffffffffffffffffffffffff16837f2f8788117e7eff1d82e926ec794901d17c78024a50270940304540a733656f0d60405160405180910390a45b5050565b6000610cc4836000018373ffffffffffffffffffffffffffffffffffffffff1660001b611691565b905092915050565b60007f7965db0b000000000000000000000000000000000000000000000000000000007bffffffffffffffffffffffffffffffffffffffffffffffffffffffff1916827bffffffffffffffffffffffffffffffffffffffffffffffffffffffff19161480610d3f5750610d3e82611701565b5b9050919050565b600033905090565b600073ffffffffffffffffffffffffffffffffffffffff168373ffffffffffffffffffffffffffffffffffffffff161415610dbe576040517f08c379a0000000000000000000000000000000000000000000000000000000008152600401610db5906126d2565b60405180910390fd5b600073ffffffffffffffffffffffffffffffffffffffff168273ffffffffffffffffffffffffffffffffffffffff161415610e2e576040517f08c379a0000000000000000000000000000000000000000000000000000000008152600401610e2590612632565b60405180910390fd5b80600160008573ffffffffffffffffffffffffffffffffffffffff1673ffffffffffffffffffffffffffffffffffffffff16815260200190815260200160002060008473ffffffffffffffffffffffffffffffffffffffff1673ffffffffffffffffffffffffffffffffffffffff168152602001908152602001600020819055508173ffffffffffffffffffffffffffffffffffffffff168373ffffffffffffffffffffffffffffffffffffffff167f8c5be1e5ebec7d5bd14f71427d1e84f3dd0314c0f7b2291e5b200ac8c7c3b92583604051610f0c9190612752565b60405180910390a3505050565b6000610f258484610b34565b90507fffffffffffffffffffffffffffffffffffffffffffffffffffffffffffffffff8114610f9f5781811015610f91576040517f08c379a0000000000000000000000000000000000000000000000000000000008152600401610f8890612652565b60405180910390fd5b610f9e8484848403610d4e565b5b50505050565b600073ffffffffffffffffffffffffffffffffffffffff168373ffffffffffffffffffffffffffffffffffffffff161415611015576040517f08c379a000000000000000000000000000000000000000000000000000000000815260040161100c906126b2565b60405180910390fd5b600073ffffffffffffffffffffffffffffffffffffffff168273ffffffffffffffffffffffffffffffffffffffff161415611085576040517f08c379a000000000000000000000000000000000000000000000000000000000815260040161107c906125f2565b60405180910390fd5b61109083838361176b565b60008060008573ffffffffffffffffffffffffffffffffffffffff1673ffffffffffffffffffffffffffffffffffffffff16815260200190815260200160002054905081811015611116576040517f08c379a000000000000000000000000000000000000000000000000000000000815260040161110d90612672565b60405180910390fd5b8181036000808673ffffffffffffffffffffffffffffffffffffffff1673ffffffffffffffffffffffffffffffffffffffff16815260200190815260200160002081905550816000808573ffffffffffffffffffffffffffffffffffffffff1673ffffffffffffffffffffffffffffffffffffffff16815260200190815260200160002060008282546111a991906127af565b925050819055508273ffffffffffffffffffffffffffffffffffffffff168473ffffffffffffffffffffffffffffffffffffffff167fddf252ad1be2c89b69c2b068fc378daa952ba7f163c4a11628f55a4df523b3ef8460405161120d9190612752565b60405180910390a3611220848484611770565b50505050565b6112308282610895565b6112bf576112558173ffffffffffffffffffffffffffffffffffffffff166014611775565b6112638360001c6020611775565b604051602001611274929190612525565b6040516020818303038152906040526040517f08c379a00000000000000000000000000000000000000000000000000000000081526004016112b691906125b0565b60405180910390fd5b5050565b6112cd8282610bbb565b6112f28160066000858152602001908152602001600020610c9c90919063ffffffff16565b505050565b6113018282611a6f565b6113268160066000858152602001908152602001600020611b5190919063ffffffff16565b505050565b600073ffffffffffffffffffffffffffffffffffffffff168273ffffffffffffffffffffffffffffffffffffffff16141561139b576040517f08c379a000000000000000000000000000000000000000000000000000000000815260040161139290612732565b60405180910390fd5b6113a76000838361176b565b80600260008282546113b991906127af565b92505081905550806000808473ffffffffffffffffffffffffffffffffffffffff1673ffffffffffffffffffffffffffffffffffffffff168152602001908152602001600020600082825461140e91906127af565b925050819055508173ffffffffffffffffffffffffffffffffffffffff16600073ffffffffffffffffffffffffffffffffffffffff167fddf252ad1be2c89b69c2b068fc378daa952ba7f163c4a11628f55a4df523b3ef836040516114739190612752565b60405180910390a361148760008383611770565b5050565b600061149a8360000183611b81565b60001c905092915050565b600073ffffffffffffffffffffffffffffffffffffffff168273ffffffffffffffffffffffffffffffffffffffff161415611515576040517f08c379a000000000000000000000000000000000000000000000000000000000815260040161150c90612692565b60405180910390fd5b6115218260008361176b565b60008060008473ffffffffffffffffffffffffffffffffffffffff1673ffffffffffffffffffffffffffffffffffffffff168152602001908152602001600020549050818110156115a7576040517f08c379a000000000000000000000000000000000000000000000000000000000815260040161159e90612612565b60405180910390fd5b8181036000808573ffffffffffffffffffffffffffffffffffffffff1673ffffffffffffffffffffffffffffffffffffffff1681526020019081526020016000208190555081600260008282546115fe919061285f565b92505081905550600073ffffffffffffffffffffffffffffffffffffffff168373ffffffffffffffffffffffffffffffffffffffff167fddf252ad1be2c89b69c2b068fc378daa952ba7f163c4a11628f55a4df523b3ef846040516116639190612752565b60405180910390a361167783600084611770565b505050565b600061168a82600001611bd2565b9050919050565b600061169d8383611be3565b6116f65782600001829080600181540180825580915050600190039060005260206000200160009091909190915055826000018054905083600101600084815260200190815260200160002081905550600190506116fb565b600090505b92915050565b60007f01ffc9a7000000000000000000000000000000000000000000000000000000007bffffffffffffffffffffffffffffffffffffffffffffffffffffffff1916827bffffffffffffffffffffffffffffffffffffffffffffffffffffffff1916149050919050565b505050565b505050565b6060600060028360026117889190612805565b61179291906127af565b67ffffffffffffffff8111156117d1577f4e487b7100000000000000000000000000000000000000000000000000000000600052604160045260246000fd5b6040519080825280601f01601f1916602001820160405280156118035781602001600182028036833780820191505090505b5090507f300000000000000000000000000000000000000000000000000000000000000081600081518110611861577f4e487b7100000000000000000000000000000000000000000000000000000000600052603260045260246000fd5b60200101907effffffffffffffffffffffffffffffffffffffffffffffffffffffffffffff1916908160001a9053507f7800000000000000000000000000000000000000000000000000000000000000816001815181106118eb577f4e487b7100000000000000000000000000000000000000000000000000000000600052603260045260246000fd5b60200101907effffffffffffffffffffffffffffffffffffffffffffffffffffffffffffff1916908160001a9053506000600184600261192b9190612805565b61193591906127af565b90505b6001811115611a21577f3031323334353637383961626364656600000000000000000000000000000000600f86166010811061199d577f4e487b7100000000000000000000000000000000000000000000000000000000600052603260045260246000fd5b1a60f81b8282815181106119da577f4e487b7100000000000000000000000000000000000000000000000000000000600052603260045260246000fd5b60200101907effffffffffffffffffffffffffffffffffffffffffffffffffffffffffffff1916908160001a905350600485901c945080611a1a90612951565b9050611938565b5060008414611a65576040517f08c379a0000000000000000000000000000000000000000000000000000000008152600401611a5c906125d2565b60405180910390fd5b8091505092915050565b611a798282610895565b15611b4d5760006005600084815260200190815260200160002060000160008373ffffffffffffffffffffffffffffffffffffffff1673ffffffffffffffffffffffffffffffffffffffff16815260200190815260200160002060006101000a81548160ff021916908315150217905550611af2610d46565b73ffffffffffffffffffffffffffffffffffffffff168173ffffffffffffffffffffffffffffffffffffffff16837ff6391f5c32d9c69d2a47ea670b442974b53935d1edc7fd64eb21e047a839171b60405160405180910390a45b5050565b6000611b79836000018373ffffffffffffffffffffffffffffffffffffffff1660001b611c06565b905092915050565b6000826000018281548110611bbf577f4e487b7100000000000000000000000000000000000000000000000000000000600052603260045260246000fd5b9060005260206000200154905092915050565b600081600001805490509050919050565b600080836001016000848152602001908152602001600020541415905092915050565b60008083600101600084815260200190815260200160002054905060008114611d80576000600182611c38919061285f565b9050600060018660000180549050611c50919061285f565b9050818114611d0b576000866000018281548110611c97577f4e487b7100000000000000000000000000000000000000000000000000000000600052603260045260246000fd5b9060005260206000200154905080876000018481548110611ce1577f4e487b7100000000000000000000000000000000000000000000000000000000600052603260045260246000fd5b90600052602060002001819055508387600101600083815260200190815260200160002081905550505b85600001805480611d45577f4e487b7100000000000000000000000000000000000000000000000000000000600052603160045260246000fd5b600190038181906000526020600020016000905590558560010160008681526020019081526020016000206000905560019350505050611d86565b60009150505b92915050565b600081359050611d9b81612a1c565b92915050565b600081359050611db081612a33565b92915050565b600081359050611dc581612a4a565b92915050565b600081359050611dda81612a61565b92915050565b600060208284031215611df257600080fd5b6000611e0084828501611d8c565b91505092915050565b60008060408385031215611e1c57600080fd5b6000611e2a85828601611d8c565b9250506020611e3b85828601611d8c565b9150509250929050565b600080600060608486031215611e5a57600080fd5b6000611e6886828701611d8c565b9350506020611e7986828701611d8c565b9250506040611e8a86828701611dcb565b9150509250925092565b60008060408385031215611ea757600080fd5b6000611eb585828601611d8c565b9250506020611ec685828601611dcb565b9150509250929050565b600060208284031215611ee257600080fd5b6000611ef084828501611da1565b91505092915050565b60008060408385031215611f0c57600080fd5b6000611f1a85828601611da1565b9250506020611f2b85828601611d8c565b9150509250929050565b60008060408385031215611f4857600080fd5b6000611f5685828601611da1565b9250506020611f6785828601611dcb565b9150509250929050565b600060208284031215611f8357600080fd5b6000611f9184828501611db6565b91505092915050565b611fa381612893565b82525050565b611fb2816128a5565b82525050565b611fc1816128b1565b82525050565b6000611fd282612788565b611fdc8185612793565b9350611fec81856020860161291e565b611ff581612a0b565b840191505092915050565b600061200b82612788565b61201581856127a4565b935061202581856020860161291e565b80840191505092915050565b600061203e602083612793565b91507f537472696e67733a20686578206c656e67746820696e73756666696369656e746000830152602082019050919050565b600061207e602383612793565b91507f45524332303a207472616e7366657220746f20746865207a65726f206164647260008301527f65737300000000000000000000000000000000000000000000000000000000006020830152604082019050919050565b60006120e4602283612793565b91507f45524332303a206275726e20616d6f756e7420657863656564732062616c616e60008301527f63650000000000000000000000000000000000000000000000000000000000006020830152604082019050919050565b600061214a602283612793565b91507f45524332303a20617070726f766520746f20746865207a65726f20616464726560008301527f73730000000000000000000000000000000000000000000000000000000000006020830152604082019050919050565b60006121b0601d83612793565b91507f45524332303a20696e73756666696369656e7420616c6c6f77616e63650000006000830152602082019050919050565b60006121f0602683612793565b91507f45524332303a207472616e7366657220616d6f756e742065786365656473206260008301527f616c616e636500000000000000000000000000000000000000000000000000006020830152604082019050919050565b6000612256602183612793565b91507f45524332303a206275726e2066726f6d20746865207a65726f2061646472657360008301527f73000000000000000000000000000000000000000000000000000000000000006020830152604082019050919050565b60006122bc602583612793565b91507f45524332303a207472616e736665722066726f6d20746865207a65726f20616460008301527f64726573730000000000000000000000000000000000000000000000000000006020830152604082019050919050565b6000612322602483612793565b91507f45524332303a20617070726f76652066726f6d20746865207a65726f2061646460008301527f72657373000000000000000000000000000000000000000000000000000000006020830152604082019050919050565b60006123886017836127a4565b91507f416363657373436f6e74726f6c3a206163636f756e74200000000000000000006000830152601782019050919050565b60006123c8602583612793565b91507f45524332303a2064656372656173656420616c6c6f77616e63652062656c6f7760008301527f207a65726f0000000000000000000000000000000000000000000000000000006020830152604082019050919050565b600061242e6011836127a4565b91507f206973206d697373696e6720726f6c65200000000000000000000000000000006000830152601182019050919050565b600061246e602f83612793565b91507f416363657373436f6e74726f6c3a2063616e206f6e6c792072656e6f756e636560008301527f20726f6c657320666f722073656c6600000000000000000000000000000000006020830152604082019050919050565b60006124d4601f83612793565b91507f45524332303a206d696e7420746f20746865207a65726f2061646472657373006000830152602082019050919050565b61251081612907565b82525050565b61251f81612911565b82525050565b60006125308261237b565b915061253c8285612000565b915061254782612421565b91506125538284612000565b91508190509392505050565b60006020820190506125746000830184611f9a565b92915050565b600060208201905061258f6000830184611fa9565b92915050565b60006020820190506125aa6000830184611fb8565b92915050565b600060208201905081810360008301526125ca8184611fc7565b905092915050565b600060208201905081810360008301526125eb81612031565b9050919050565b6000602082019050818103600083015261260b81612071565b9050919050565b6000602082019050818103600083015261262b816120d7565b9050919050565b6000602082019050818103600083015261264b8161213d565b9050919050565b6000602082019050818103600083015261266b816121a3565b9050919050565b6000602082019050818103600083015261268b816121e3565b9050919050565b600060208201905081810360008301526126ab81612249565b9050919050565b600060208201905081810360008301526126cb816122af565b9050919050565b600060208201905081810360008301526126eb81612315565b9050919050565b6000602082019050818103600083015261270b816123bb565b9050919050565b6000602082019050818103600083015261272b81612461565b9050919050565b6000602082019050818103600083015261274b816124c7565b9050919050565b60006020820190506127676000830184612507565b92915050565b60006020820190506127826000830184612516565b92915050565b600081519050919050565b600082825260208201905092915050565b600081905092915050565b60006127ba82612907565b91506127c583612907565b9250827fffffffffffffffffffffffffffffffffffffffffffffffffffffffffffffffff038211156127fa576127f96129ad565b5b828201905092915050565b600061281082612907565b915061281b83612907565b9250817fffffffffffffffffffffffffffffffffffffffffffffffffffffffffffffffff0483118215151615612854576128536129ad565b5b828202905092915050565b600061286a82612907565b915061287583612907565b925082821015612888576128876129ad565b5b828203905092915050565b600061289e826128e7565b9050919050565b60008115159050919050565b6000819050919050565b60007fffffffff0000000000000000000000000000000000000000000000000000000082169050919050565b600073ffffffffffffffffffffffffffffffffffffffff82169050919050565b6000819050919050565b600060ff82169050919050565b60005b8381101561293c578082015181840152602081019050612921565b8381111561294b576000848401525b50505050565b600061295c82612907565b915060008214156129705761296f6129ad565b5b600182039050919050565b6000600282049050600182168061299357607f821691505b602082108114156129a7576129a66129dc565b5b50919050565b7f4e487b7100000000000000000000000000000000000000000000000000000000600052601160045260246000fd5b7f4e487b7100000000000000000000000000000000000000000000000000000000600052602260045260246000fd5b6000601f19601f8301169050919050565b612a2581612893565b8114612a3057600080fd5b50565b612a3c816128b1565b8114612a4757600080fd5b50565b612a53816128bb565b8114612a5e57600080fd5b50565b612a6a81612907565b8114612a7557600080fd5b5056fea2646970667358221220b19a5416251cb2aa06d07a1dc7e9a60e874284ae626de566a523563eb9d73bf464736f6c63430008000033",
  "linkReferences": {},
  "deployedLinkReferences": {}
}