{
  "_format": "hh-sol-artifact-1",
  "contractName": "IceToken",
  "sourceName": "contracts/tokens/IceToken.sol",
  "abi": [
    {
      "inputs": [
        {
          "internalType": "address",
          "name": "admin_",
          "type": "address"
        }
      ],
      "stateMutability": "nonpayable",
      "type": "constructor"
    },
    {
      "anonymous": false,
      "inputs": [
        {
          "indexed": true,
          "internalType": "address",
          "name": "owner",
          "type": "address"
        },
        {
          "indexed": true,
          "internalType": "address",
          "name": "spender",
          "type": "address"
        },
        {
          "indexed": false,
          "internalType": "uint256",
          "name": "value",
          "type": "uint256"
        }
      ],
      "name": "Approval",
      "type": "event"
    },
    {
      "anonymous": false,
      "inputs": [
        {
          "indexed": true,
          "internalType": "address",
          "name": "account",
          "type": "address"
        },
        {
          "indexed": false,
          "internalType": "uint256",
          "name": "amount",
          "type": "uint256"
        }
      ],
      "name": "ClaimReward",
      "type": "event"
    },
    {
      "anonymous": false,
      "inputs": [
        {
          "indexed": true,
          "internalType": "address",
          "name": "account",
          "type": "address"
        },
        {
          "indexed": false,
          "internalType": "uint256",
          "name": "amount",
          "type": "uint256"
        },
        {
          "indexed": false,
          "internalType": "uint256",
          "name": "claimableReward",
          "type": "uint256"
        }
      ],
      "name": "Reward",
      "type": "event"
    },
    {
      "anonymous": false,
      "inputs": [
        {
          "indexed": true,
          "internalType": "bytes32",
          "name": "role",
          "type": "bytes32"
        },
        {
          "indexed": true,
          "internalType": "bytes32",
          "name": "previousAdminRole",
          "type": "bytes32"
        },
        {
          "indexed": true,
          "internalType": "bytes32",
          "name": "newAdminRole",
          "type": "bytes32"
        }
      ],
      "name": "RoleAdminChanged",
      "type": "event"
    },
    {
      "anonymous": false,
      "inputs": [
        {
          "indexed": true,
          "internalType": "bytes32",
          "name": "role",
          "type": "bytes32"
        },
        {
          "indexed": true,
          "internalType": "address",
          "name": "account",
          "type": "address"
        },
        {
          "indexed": true,
          "internalType": "address",
          "name": "sender",
          "type": "address"
        }
      ],
      "name": "RoleGranted",
      "type": "event"
    },
    {
      "anonymous": false,
      "inputs": [
        {
          "indexed": true,
          "internalType": "bytes32",
          "name": "role",
          "type": "bytes32"
        },
        {
          "indexed": true,
          "internalType": "address",
          "name": "account",
          "type": "address"
        },
        {
          "indexed": true,
          "internalType": "address",
          "name": "sender",
          "type": "address"
        }
      ],
      "name": "RoleRevoked",
      "type": "event"
    },
    {
      "anonymous": false,
      "inputs": [
        {
          "indexed": true,
          "internalType": "address",
          "name": "from",
          "type": "address"
        },
        {
          "indexed": true,
          "internalType": "address",
          "name": "to",
          "type": "address"
        },
        {
          "indexed": false,
          "internalType": "uint256",
          "name": "value",
          "type": "uint256"
        }
      ],
      "name": "Transfer",
      "type": "event"
    },
    {
      "inputs": [],
      "name": "DEFAULT_ADMIN_ROLE",
      "outputs": [
        {
          "internalType": "bytes32",
          "name": "",
          "type": "bytes32"
        }
      ],
      "stateMutability": "view",
      "type": "function"
    },
    {
      "inputs": [],
      "name": "MINTER_BURNER_ROLE",
      "outputs": [
        {
          "internalType": "bytes32",
          "name": "",
          "type": "bytes32"
        }
      ],
      "stateMutability": "view",
      "type": "function"
    },
    {
      "inputs": [
        {
          "internalType": "address",
          "name": "owner",
          "type": "address"
        },
        {
          "internalType": "address",
          "name": "spender",
          "type": "address"
        }
      ],
      "name": "allowance",
      "outputs": [
        {
          "internalType": "uint256",
          "name": "",
          "type": "uint256"
        }
      ],
      "stateMutability": "view",
      "type": "function"
    },
    {
      "inputs": [
        {
          "internalType": "address",
          "name": "spender",
          "type": "address"
        },
        {
          "internalType": "uint256",
          "name": "amount",
          "type": "uint256"
        }
      ],
      "name": "approve",
      "outputs": [
        {
          "internalType": "bool",
          "name": "",
          "type": "bool"
        }
      ],
      "stateMutability": "nonpayable",
      "type": "function"
    },
    {
      "inputs": [
        {
          "internalType": "address",
          "name": "account",
          "type": "address"
        }
      ],
      "name": "balanceOf",
      "outputs": [
        {
          "internalType": "uint256",
          "name": "",
          "type": "uint256"
        }
      ],
      "stateMutability": "view",
      "type": "function"
    },
    {
      "inputs": [
        {
          "internalType": "address",
          "name": "account",
          "type": "address"
        },
        {
          "internalType": "uint256",
          "name": "value",
          "type": "uint256"
        }
      ],
      "name": "burn",
      "outputs": [],
      "stateMutability": "nonpayable",
      "type": "function"
    },
    {
      "inputs": [
        {
          "internalType": "address",
          "name": "account",
          "type": "address"
        }
      ],
      "name": "claimReward",
      "outputs": [
        {
          "internalType": "uint256",
          "name": "",
          "type": "uint256"
        }
      ],
      "stateMutability": "nonpayable",
      "type": "function"
    },
    {
      "inputs": [
        {
          "internalType": "address",
          "name": "account",
          "type": "address"
        }
      ],
      "name": "claimableReward",
      "outputs": [
        {
          "internalType": "uint256",
          "name": "",
          "type": "uint256"
        }
      ],
      "stateMutability": "view",
      "type": "function"
    },
    {
      "inputs": [],
      "name": "decimals",
      "outputs": [
        {
          "internalType": "uint8",
          "name": "",
          "type": "uint8"
        }
      ],
      "stateMutability": "view",
      "type": "function"
    },
    {
      "inputs": [
        {
          "internalType": "address",
          "name": "spender",
          "type": "address"
        },
        {
          "internalType": "uint256",
          "name": "subtractedValue",
          "type": "uint256"
        }
      ],
      "name": "decreaseAllowance",
      "outputs": [
        {
          "internalType": "bool",
          "name": "",
          "type": "bool"
        }
      ],
      "stateMutability": "nonpayable",
      "type": "function"
    },
    {
      "inputs": [
        {
          "internalType": "bytes32",
          "name": "role",
          "type": "bytes32"
        }
      ],
      "name": "getRoleAdmin",
      "outputs": [
        {
          "internalType": "bytes32",
          "name": "",
          "type": "bytes32"
        }
      ],
      "stateMutability": "view",
      "type": "function"
    },
    {
      "inputs": [
        {
          "internalType": "bytes32",
          "name": "role",
          "type": "bytes32"
        },
        {
          "internalType": "uint256",
          "name": "index",
          "type": "uint256"
        }
      ],
      "name": "getRoleMember",
      "outputs": [
        {
          "internalType": "address",
          "name": "",
          "type": "address"
        }
      ],
      "stateMutability": "view",
      "type": "function"
    },
    {
      "inputs": [
        {
          "internalType": "bytes32",
          "name": "role",
          "type": "bytes32"
        }
      ],
      "name": "getRoleMemberCount",
      "outputs": [
        {
          "internalType": "uint256",
          "name": "",
          "type": "uint256"
        }
      ],
      "stateMutability": "view",
      "type": "function"
    },
    {
      "inputs": [
        {
          "internalType": "bytes32",
          "name": "role",
          "type": "bytes32"
        },
        {
          "internalType": "address",
          "name": "account",
          "type": "address"
        }
      ],
      "name": "grantRole",
      "outputs": [],
      "stateMutability": "nonpayable",
      "type": "function"
    },
    {
      "inputs": [
        {
          "internalType": "bytes32",
          "name": "role",
          "type": "bytes32"
        },
        {
          "internalType": "address",
          "name": "account",
          "type": "address"
        }
      ],
      "name": "hasRole",
      "outputs": [
        {
          "internalType": "bool",
          "name": "",
          "type": "bool"
        }
      ],
      "stateMutability": "view",
      "type": "function"
    },
    {
      "inputs": [
        {
          "internalType": "address",
          "name": "spender",
          "type": "address"
        },
        {
          "internalType": "uint256",
          "name": "addedValue",
          "type": "uint256"
        }
      ],
      "name": "increaseAllowance",
      "outputs": [
        {
          "internalType": "bool",
          "name": "",
          "type": "bool"
        }
      ],
      "stateMutability": "nonpayable",
      "type": "function"
    },
    {
      "inputs": [
        {
          "internalType": "address",
          "name": "account",
          "type": "address"
        },
        {
          "internalType": "uint256",
          "name": "value",
          "type": "uint256"
        }
      ],
      "name": "mint",
      "outputs": [],
      "stateMutability": "nonpayable",
      "type": "function"
    },
    {
      "inputs": [],
      "name": "name",
      "outputs": [
        {
          "internalType": "string",
          "name": "",
          "type": "string"
        }
      ],
      "stateMutability": "view",
      "type": "function"
    },
    {
      "inputs": [
        {
          "internalType": "bytes32",
          "name": "role",
          "type": "bytes32"
        },
        {
          "internalType": "address",
          "name": "account",
          "type": "address"
        }
      ],
      "name": "renounceRole",
      "outputs": [],
      "stateMutability": "nonpayable",
      "type": "function"
    },
    {
      "inputs": [
        {
          "internalType": "bytes32",
          "name": "role",
          "type": "bytes32"
        },
        {
          "internalType": "address",
          "name": "account",
          "type": "address"
        }
      ],
      "name": "revokeRole",
      "outputs": [],
      "stateMutability": "nonpayable",
      "type": "function"
    },
    {
      "inputs": [
        {
          "internalType": "bytes4",
          "name": "interfaceId",
          "type": "bytes4"
        }
      ],
      "name": "supportsInterface",
      "outputs": [
        {
          "internalType": "bool",
          "name": "",
          "type": "bool"
        }
      ],
      "stateMutability": "view",
      "type": "function"
    },
    {
      "inputs": [],
      "name": "symbol",
      "outputs": [
        {
          "internalType": "string",
          "name": "",
          "type": "string"
        }
      ],
      "stateMutability": "view",
      "type": "function"
    },
    {
      "inputs": [],
      "name": "totalSupply",
      "outputs": [
        {
          "internalType": "uint256",
          "name": "",
          "type": "uint256"
        }
      ],
      "stateMutability": "view",
      "type": "function"
    },
    {
      "inputs": [
        {
          "internalType": "address",
          "name": "to",
          "type": "address"
        },
        {
          "internalType": "uint256",
          "name": "amount",
          "type": "uint256"
        }
      ],
      "name": "transfer",
      "outputs": [
        {
          "internalType": "bool",
          "name": "",
          "type": "bool"
        }
      ],
      "stateMutability": "nonpayable",
      "type": "function"
    },
    {
      "inputs": [
        {
          "internalType": "address",
          "name": "from",
          "type": "address"
        },
        {
          "internalType": "address",
          "name": "to",
          "type": "address"
        },
        {
          "internalType": "uint256",
          "name": "amount",
          "type": "uint256"
        }
      ],
      "name": "transferFrom",
      "outputs": [
        {
          "internalType": "bool",
          "name": "",
          "type": "bool"
        }
      ],
      "stateMutability": "nonpayable",
      "type": "function"
    }
  ],
  "bytecode": "0x608060405266470de4df8200006009553480156200001c57600080fd5b506040516200412b3803806200412b833981810160405281019062000042919062000c20565b6040518060400160405280600381526020017f49434500000000000000000000000000000000000000000000000000000000008152506040518060400160405280600381526020017f49434500000000000000000000000000000000000000000000000000000000008152508282828282828160039080519060200190620000cc92919062000b59565b508060049080519060200190620000e592919062000b59565b505050620000fd6000801b826200012660201b60201c565b5050505050506200011f3369021e19e0c9bab24000006200013c60201b60201c565b506200107c565b620001388282620002b560201b60201c565b5050565b600073ffffffffffffffffffffffffffffffffffffffff168273ffffffffffffffffffffffffffffffffffffffff161415620001af576040517f08c379a0000000000000000000000000000000000000000000000000000000008152600401620001a69062000db3565b60405180910390fd5b620001c360008383620002fd60201b60201c565b8060026000828254620001d7919062000e30565b92505081905550806000808473ffffffffffffffffffffffffffffffffffffffff1673ffffffffffffffffffffffffffffffffffffffff16815260200190815260200160002060008282546200022e919062000e30565b925050819055508173ffffffffffffffffffffffffffffffffffffffff16600073ffffffffffffffffffffffffffffffffffffffff167fddf252ad1be2c89b69c2b068fc378daa952ba7f163c4a11628f55a4df523b3ef8360405162000295919062000dd5565b60405180910390a3620002b160008383620003ae60201b60201c565b5050565b620002cc82826200046760201b62000d881760201c565b620002f881600660008581526020019081526020016000206200055960201b62000e691790919060201c565b505050565b600073ffffffffffffffffffffffffffffffffffffffff168373ffffffffffffffffffffffffffffffffffffffff16141580156200033b5750600081115b15620003535762000352836200059160201b60201c565b5b600073ffffffffffffffffffffffffffffffffffffffff168273ffffffffffffffffffffffffffffffffffffffff1614158015620003915750600081115b15620003a957620003a8826200059160201b60201c565b5b505050565b600073ffffffffffffffffffffffffffffffffffffffff168373ffffffffffffffffffffffffffffffffffffffff1614158015620004195750600073ffffffffffffffffffffffffffffffffffffffff168273ffffffffffffffffffffffffffffffffffffffff1614155b80156200042857506000600954115b15620004625760006200044c826009546200076b60201b62000e991790919060201c565b90506200046083826200079860201b60201c565b505b505050565b6200047982826200098960201b60201c565b620005555760016005600084815260200190815260200160002060000160008373ffffffffffffffffffffffffffffffffffffffff1673ffffffffffffffffffffffffffffffffffffffff16815260200190815260200160002060006101000a81548160ff021916908315150217905550620004fa620009f460201b60201c565b73ffffffffffffffffffffffffffffffffffffffff168173ffffffffffffffffffffffffffffffffffffffff16837f2f8788117e7eff1d82e926ec794901d17c78024a50270940304540a733656f0d60405160405180910390a45b5050565b600062000589836000018373ffffffffffffffffffffffffffffffffffffffff1660001b620009fc60201b60201c565b905092915050565b6000600760008373ffffffffffffffffffffffffffffffffffffffff1673ffffffffffffffffffffffffffffffffffffffff168152602001908152602001600020541415620006245742600760008373ffffffffffffffffffffffffffffffffffffffff1673ffffffffffffffffffffffffffffffffffffffff1681526020019081526020016000208190555062000768565b6000620006378262000a7660201b60201c565b905042600760008473ffffffffffffffffffffffffffffffffffffffff1673ffffffffffffffffffffffffffffffffffffffff1681526020019081526020016000208190555080600860008473ffffffffffffffffffffffffffffffffffffffff1673ffffffffffffffffffffffffffffffffffffffff1681526020019081526020016000206000828254620006ce919062000e30565b925050819055508173ffffffffffffffffffffffffffffffffffffffff167f02a6a2be713fedf52f113c0a759f1c1a23a113476d9b1b1a2a453c910660de4e82600860008673ffffffffffffffffffffffffffffffffffffffff1673ffffffffffffffffffffffffffffffffffffffff168152602001908152602001600020546040516200075e92919062000df2565b60405180910390a2505b50565b6000670de0b6b3a7640000828462000784919062000ec5565b62000790919062000e8d565b905092915050565b600073ffffffffffffffffffffffffffffffffffffffff168273ffffffffffffffffffffffffffffffffffffffff1614156200080b576040517f08c379a0000000000000000000000000000000000000000000000000000000008152600401620008029062000d91565b60405180910390fd5b6200081f82600083620002fd60201b60201c565b60008060008473ffffffffffffffffffffffffffffffffffffffff1673ffffffffffffffffffffffffffffffffffffffff16815260200190815260200160002054905081811015620008a8576040517f08c379a00000000000000000000000000000000000000000000000000000000081526004016200089f9062000d6f565b60405180910390fd5b8181036000808573ffffffffffffffffffffffffffffffffffffffff1673ffffffffffffffffffffffffffffffffffffffff16815260200190815260200160002081905550816002600082825462000901919062000f26565b92505081905550600073ffffffffffffffffffffffffffffffffffffffff168373ffffffffffffffffffffffffffffffffffffffff167fddf252ad1be2c89b69c2b068fc378daa952ba7f163c4a11628f55a4df523b3ef8460405162000968919062000dd5565b60405180910390a36200098483600084620003ae60201b60201c565b505050565b60006005600084815260200190815260200160002060000160008373ffffffffffffffffffffffffffffffffffffffff1673ffffffffffffffffffffffffffffffffffffffff16815260200190815260200160002060009054906101000a900460ff16905092915050565b600033905090565b600062000a10838362000aee60201b60201c565b62000a6b57826000018290806001815401808255809150506001900390600052602060002001600090919091909150558260000180549050836001016000848152602001908152602001600020819055506001905062000a70565b600090505b92915050565b600080600760008473ffffffffffffffffffffffffffffffffffffffff1673ffffffffffffffffffffffffffffffffffffffff168152602001908152602001600020544262000ac6919062000f26565b905062000ad98362000b1160201b60201c565b8162000ae6919062000ec5565b915050919050565b600080836001016000848152602001908152602001600020541415905092915050565b60008060008373ffffffffffffffffffffffffffffffffffffffff1673ffffffffffffffffffffffffffffffffffffffff168152602001908152602001600020549050919050565b82805462000b679062000f9f565b90600052602060002090601f01602090048101928262000b8b576000855562000bd7565b82601f1062000ba657805160ff191683800117855562000bd7565b8280016001018555821562000bd7579182015b8281111562000bd657825182559160200191906001019062000bb9565b5b50905062000be6919062000bea565b5090565b5b8082111562000c0557600081600090555060010162000beb565b5090565b60008151905062000c1a8162001062565b92915050565b60006020828403121562000c3357600080fd5b600062000c438482850162000c09565b91505092915050565b600062000c5b60228362000e1f565b91507f45524332303a206275726e20616d6f756e7420657863656564732062616c616e60008301527f63650000000000000000000000000000000000000000000000000000000000006020830152604082019050919050565b600062000cc360218362000e1f565b91507f45524332303a206275726e2066726f6d20746865207a65726f2061646472657360008301527f73000000000000000000000000000000000000000000000000000000000000006020830152604082019050919050565b600062000d2b601f8362000e1f565b91507f45524332303a206d696e7420746f20746865207a65726f2061646472657373006000830152602082019050919050565b62000d698162000f95565b82525050565b6000602082019050818103600083015262000d8a8162000c4c565b9050919050565b6000602082019050818103600083015262000dac8162000cb4565b9050919050565b6000602082019050818103600083015262000dce8162000d1c565b9050919050565b600060208201905062000dec600083018462000d5e565b92915050565b600060408201905062000e09600083018562000d5e565b62000e18602083018462000d5e565b9392505050565b600082825260208201905092915050565b600062000e3d8262000f95565b915062000e4a8362000f95565b9250827fffffffffffffffffffffffffffffffffffffffffffffffffffffffffffffffff0382111562000e825762000e8162000fd5565b5b828201905092915050565b600062000e9a8262000f95565b915062000ea78362000f95565b92508262000eba5762000eb962001004565b5b828204905092915050565b600062000ed28262000f95565b915062000edf8362000f95565b9250817fffffffffffffffffffffffffffffffffffffffffffffffffffffffffffffffff048311821515161562000f1b5762000f1a62000fd5565b5b828202905092915050565b600062000f338262000f95565b915062000f408362000f95565b92508282101562000f565762000f5562000fd5565b5b828203905092915050565b600062000f6e8262000f75565b9050919050565b600073ffffffffffffffffffffffffffffffffffffffff82169050919050565b6000819050919050565b6000600282049050600182168062000fb857607f821691505b6020821081141562000fcf5762000fce62001033565b5b50919050565b7f4e487b7100000000000000000000000000000000000000000000000000000000600052601160045260246000fd5b7f4e487b7100000000000000000000000000000000000000000000000000000000600052601260045260246000fd5b7f4e487b7100000000000000000000000000000000000000000000000000000000600052602260045260246000fd5b6200106d8162000f61565b81146200107957600080fd5b50565b61309f806200108c6000396000f3fe608060405234801561001057600080fd5b50600436106101735760003560e01c806372c32860116100de578063a457c2d711610097578063d279c19111610071578063d279c191146104ac578063d547741f146104dc578063dd62ed3e146104f8578063e95034251461052857610173565b8063a457c2d71461041c578063a9059cbb1461044c578063ca15c8731461047c57610173565b806372c32860146103465780639010d07c1461036457806391d148541461039457806395d89b41146103c45780639dc29fac146103e2578063a217fddf146103fe57610173565b80632f2ff15d116101305780632f2ff15d14610274578063313ce5671461029057806336568abe146102ae57806339509351146102ca57806340c10f19146102fa57806370a082311461031657610173565b806301ffc9a71461017857806306fdde03146101a8578063095ea7b3146101c657806318160ddd146101f657806323b872dd14610214578063248a9ca314610244575b600080fd5b610192600480360381019061018d91906124d9565b610558565b60405161019f9190612ae2565b60405180910390f35b6101b06105d2565b6040516101bd9190612b18565b60405180910390f35b6101e060048036038101906101db91906123fc565b610664565b6040516101ed9190612ae2565b60405180910390f35b6101fe610687565b60405161020b9190612cba565b60405180910390f35b61022e600480360381019061022991906123ad565b610691565b60405161023b9190612ae2565b60405180910390f35b61025e60048036038101906102599190612438565b6106c0565b60405161026b9190612afd565b60405180910390f35b61028e60048036038101906102899190612461565b6106e0565b005b610298610709565b6040516102a59190612cfe565b60405180910390f35b6102c860048036038101906102c39190612461565b610712565b005b6102e460048036038101906102df91906123fc565b610795565b6040516102f19190612ae2565b60405180910390f35b610314600480360381019061030f91906123fc565b61083f565b005b610330600480360381019061032b9190612348565b610880565b60405161033d9190612cba565b60405180910390f35b61034e6108c8565b60405161035b9190612afd565b60405180910390f35b61037e6004803603810190610379919061249d565b6108ec565b60405161038b9190612ac7565b60405180910390f35b6103ae60048036038101906103a99190612461565b61091b565b6040516103bb9190612ae2565b60405180910390f35b6103cc610986565b6040516103d99190612b18565b60405180910390f35b6103fc60048036038101906103f791906123fc565b610a18565b005b610406610a59565b6040516104139190612afd565b60405180910390f35b610436600480360381019061043191906123fc565b610a60565b6040516104439190612ae2565b60405180910390f35b610466600480360381019061046191906123fc565b610b4a565b6040516104739190612ae2565b60405180910390f35b61049660048036038101906104919190612438565b610b6d565b6040516104a39190612cba565b60405180910390f35b6104c660048036038101906104c19190612348565b610b91565b6040516104d39190612cba565b60405180910390f35b6104f660048036038101906104f19190612461565b610c7c565b005b610512600480360381019061050d9190612371565b610ca5565b60405161051f9190612cba565b60405180910390f35b610542600480360381019061053d9190612348565b610d2c565b60405161054f9190612cba565b60405180910390f35b60007f5a05180f000000000000000000000000000000000000000000000000000000007bffffffffffffffffffffffffffffffffffffffffffffffffffffffff1916827bffffffffffffffffffffffffffffffffffffffffffffffffffffffff191614806105cb57506105ca82610ec2565b5b9050919050565b6060600380546105e190612f3d565b80601f016020809104026020016040519081016040528092919081815260200182805461060d90612f3d565b801561065a5780601f1061062f5761010080835404028352916020019161065a565b820191906000526020600020905b81548152906001019060200180831161063d57829003601f168201915b5050505050905090565b60008061066f610f3c565b905061067c818585610f44565b600191505092915050565b6000600254905090565b60008061069c610f3c565b90506106a985828561110f565b6106b485858561119b565b60019150509392505050565b600060056000838152602001908152602001600020600101549050919050565b6106e9826106c0565b6106fa816106f5610f3c565b61141c565b61070483836114b9565b505050565b60006012905090565b61071a610f3c565b73ffffffffffffffffffffffffffffffffffffffff168173ffffffffffffffffffffffffffffffffffffffff1614610787576040517f08c379a000000000000000000000000000000000000000000000000000000000815260040161077e90612c7a565b60405180910390fd5b61079182826114ed565b5050565b6000806107a0610f3c565b9050610834818585600160008673ffffffffffffffffffffffffffffffffffffffff1673ffffffffffffffffffffffffffffffffffffffff16815260200190815260200160002060008973ffffffffffffffffffffffffffffffffffffffff1673ffffffffffffffffffffffffffffffffffffffff1681526020019081526020016000205461082f9190612d40565b610f44565b600191505092915050565b7fcfd53186d792f1ec9d0679afc2dc3ffc86fc31fe1e0f342b838eb6c3eade62b36108718161086c610f3c565b61141c565b61087b8383611521565b505050565b60008060008373ffffffffffffffffffffffffffffffffffffffff1673ffffffffffffffffffffffffffffffffffffffff168152602001908152602001600020549050919050565b7fcfd53186d792f1ec9d0679afc2dc3ffc86fc31fe1e0f342b838eb6c3eade62b381565b6000610913826006600086815260200190815260200160002061168190919063ffffffff16565b905092915050565b60006005600084815260200190815260200160002060000160008373ffffffffffffffffffffffffffffffffffffffff1673ffffffffffffffffffffffffffffffffffffffff16815260200190815260200160002060009054906101000a900460ff16905092915050565b60606004805461099590612f3d565b80601f01602080910402602001604051908101604052809291908181526020018280546109c190612f3d565b8015610a0e5780601f106109e357610100808354040283529160200191610a0e565b820191906000526020600020905b8154815290600101906020018083116109f157829003601f168201915b5050505050905090565b7fcfd53186d792f1ec9d0679afc2dc3ffc86fc31fe1e0f342b838eb6c3eade62b3610a4a81610a45610f3c565b61141c565b610a54838361169b565b505050565b6000801b81565b600080610a6b610f3c565b90506000600160008373ffffffffffffffffffffffffffffffffffffffff1673ffffffffffffffffffffffffffffffffffffffff16815260200190815260200160002060008673ffffffffffffffffffffffffffffffffffffffff1673ffffffffffffffffffffffffffffffffffffffff16815260200190815260200160002054905083811015610b31576040517f08c379a0000000000000000000000000000000000000000000000000000000008152600401610b2890612c5a565b60405180910390fd5b610b3e8286868403610f44565b60019250505092915050565b600080610b55610f3c565b9050610b6281858561119b565b600191505092915050565b6000610b8a60066000848152602001908152602001600020611872565b9050919050565b6000610b9c82611887565b6000600860008473ffffffffffffffffffffffffffffffffffffffff1673ffffffffffffffffffffffffffffffffffffffff1681526020019081526020016000205490506000600860008573ffffffffffffffffffffffffffffffffffffffff1673ffffffffffffffffffffffffffffffffffffffff168152602001908152602001600020819055508273ffffffffffffffffffffffffffffffffffffffff167fba8de60c3403ec381d1d484652ea1980e3c3e56359195c92525bff4ce47ad98e82604051610c6b9190612cba565b60405180910390a280915050919050565b610c85826106c0565b610c9681610c91610f3c565b61141c565b610ca083836114ed565b505050565b6000600160008473ffffffffffffffffffffffffffffffffffffffff1673ffffffffffffffffffffffffffffffffffffffff16815260200190815260200160002060008373ffffffffffffffffffffffffffffffffffffffff1673ffffffffffffffffffffffffffffffffffffffff16815260200190815260200160002054905092915050565b6000610d3782611a53565b600860008473ffffffffffffffffffffffffffffffffffffffff1673ffffffffffffffffffffffffffffffffffffffff16815260200190815260200160002054610d819190612d40565b9050919050565b610d92828261091b565b610e655760016005600084815260200190815260200160002060000160008373ffffffffffffffffffffffffffffffffffffffff1673ffffffffffffffffffffffffffffffffffffffff16815260200190815260200160002060006101000a81548160ff021916908315150217905550610e0a610f3c565b73ffffffffffffffffffffffffffffffffffffffff168173ffffffffffffffffffffffffffffffffffffffff16837f2f8788117e7eff1d82e926ec794901d17c78024a50270940304540a733656f0d60405160405180910390a45b5050565b6000610e91836000018373ffffffffffffffffffffffffffffffffffffffff1660001b611abf565b905092915050565b6000670de0b6b3a76400008284610eb09190612dc7565b610eba9190612d96565b905092915050565b60007f7965db0b000000000000000000000000000000000000000000000000000000007bffffffffffffffffffffffffffffffffffffffffffffffffffffffff1916827bffffffffffffffffffffffffffffffffffffffffffffffffffffffff19161480610f355750610f3482611b2f565b5b9050919050565b600033905090565b600073ffffffffffffffffffffffffffffffffffffffff168373ffffffffffffffffffffffffffffffffffffffff161415610fb4576040517f08c379a0000000000000000000000000000000000000000000000000000000008152600401610fab90612c3a565b60405180910390fd5b600073ffffffffffffffffffffffffffffffffffffffff168273ffffffffffffffffffffffffffffffffffffffff161415611024576040517f08c379a000000000000000000000000000000000000000000000000000000000815260040161101b90612b9a565b60405180910390fd5b80600160008573ffffffffffffffffffffffffffffffffffffffff1673ffffffffffffffffffffffffffffffffffffffff16815260200190815260200160002060008473ffffffffffffffffffffffffffffffffffffffff1673ffffffffffffffffffffffffffffffffffffffff168152602001908152602001600020819055508173ffffffffffffffffffffffffffffffffffffffff168373ffffffffffffffffffffffffffffffffffffffff167f8c5be1e5ebec7d5bd14f71427d1e84f3dd0314c0f7b2291e5b200ac8c7c3b925836040516111029190612cba565b60405180910390a3505050565b600061111b8484610ca5565b90507fffffffffffffffffffffffffffffffffffffffffffffffffffffffffffffffff81146111955781811015611187576040517f08c379a000000000000000000000000000000000000000000000000000000000815260040161117e90612bba565b60405180910390fd5b6111948484848403610f44565b5b50505050565b600073ffffffffffffffffffffffffffffffffffffffff168373ffffffffffffffffffffffffffffffffffffffff16141561120b576040517f08c379a000000000000000000000000000000000000000000000000000000000815260040161120290612c1a565b60405180910390fd5b600073ffffffffffffffffffffffffffffffffffffffff168273ffffffffffffffffffffffffffffffffffffffff16141561127b576040517f08c379a000000000000000000000000000000000000000000000000000000000815260040161127290612b5a565b60405180910390fd5b611286838383611b99565b60008060008573ffffffffffffffffffffffffffffffffffffffff1673ffffffffffffffffffffffffffffffffffffffff1681526020019081526020016000205490508181101561130c576040517f08c379a000000000000000000000000000000000000000000000000000000000815260040161130390612bda565b60405180910390fd5b8181036000808673ffffffffffffffffffffffffffffffffffffffff1673ffffffffffffffffffffffffffffffffffffffff16815260200190815260200160002081905550816000808573ffffffffffffffffffffffffffffffffffffffff1673ffffffffffffffffffffffffffffffffffffffff168152602001908152602001600020600082825461139f9190612d40565b925050819055508273ffffffffffffffffffffffffffffffffffffffff168473ffffffffffffffffffffffffffffffffffffffff167fddf252ad1be2c89b69c2b068fc378daa952ba7f163c4a11628f55a4df523b3ef846040516114039190612cba565b60405180910390a3611416848484611c36565b50505050565b611426828261091b565b6114b55761144b8173ffffffffffffffffffffffffffffffffffffffff166014611cdd565b6114598360001c6020611cdd565b60405160200161146a929190612a8d565b6040516020818303038152906040526040517f08c379a00000000000000000000000000000000000000000000000000000000081526004016114ac9190612b18565b60405180910390fd5b5050565b6114c38282610d88565b6114e88160066000858152602001908152602001600020610e6990919063ffffffff16565b505050565b6114f78282611fd7565b61151c81600660008581526020019081526020016000206120b990919063ffffffff16565b505050565b600073ffffffffffffffffffffffffffffffffffffffff168273ffffffffffffffffffffffffffffffffffffffff161415611591576040517f08c379a000000000000000000000000000000000000000000000000000000000815260040161158890612c9a565b60405180910390fd5b61159d60008383611b99565b80600260008282546115af9190612d40565b92505081905550806000808473ffffffffffffffffffffffffffffffffffffffff1673ffffffffffffffffffffffffffffffffffffffff16815260200190815260200160002060008282546116049190612d40565b925050819055508173ffffffffffffffffffffffffffffffffffffffff16600073ffffffffffffffffffffffffffffffffffffffff167fddf252ad1be2c89b69c2b068fc378daa952ba7f163c4a11628f55a4df523b3ef836040516116699190612cba565b60405180910390a361167d60008383611c36565b5050565b600061169083600001836120e9565b60001c905092915050565b600073ffffffffffffffffffffffffffffffffffffffff168273ffffffffffffffffffffffffffffffffffffffff16141561170b576040517f08c379a000000000000000000000000000000000000000000000000000000000815260040161170290612bfa565b60405180910390fd5b61171782600083611b99565b60008060008473ffffffffffffffffffffffffffffffffffffffff1673ffffffffffffffffffffffffffffffffffffffff1681526020019081526020016000205490508181101561179d576040517f08c379a000000000000000000000000000000000000000000000000000000000815260040161179490612b7a565b60405180910390fd5b8181036000808573ffffffffffffffffffffffffffffffffffffffff1673ffffffffffffffffffffffffffffffffffffffff1681526020019081526020016000208190555081600260008282546117f49190612e21565b92505081905550600073ffffffffffffffffffffffffffffffffffffffff168373ffffffffffffffffffffffffffffffffffffffff167fddf252ad1be2c89b69c2b068fc378daa952ba7f163c4a11628f55a4df523b3ef846040516118599190612cba565b60405180910390a361186d83600084611c36565b505050565b60006118808260000161213a565b9050919050565b6000600760008373ffffffffffffffffffffffffffffffffffffffff1673ffffffffffffffffffffffffffffffffffffffff1681526020019081526020016000205414156119185742600760008373ffffffffffffffffffffffffffffffffffffffff1673ffffffffffffffffffffffffffffffffffffffff16815260200190815260200160002081905550611a50565b600061192382611a53565b905042600760008473ffffffffffffffffffffffffffffffffffffffff1673ffffffffffffffffffffffffffffffffffffffff1681526020019081526020016000208190555080600860008473ffffffffffffffffffffffffffffffffffffffff1673ffffffffffffffffffffffffffffffffffffffff16815260200190815260200160002060008282546119b89190612d40565b925050819055508173ffffffffffffffffffffffffffffffffffffffff167f02a6a2be713fedf52f113c0a759f1c1a23a113476d9b1b1a2a453c910660de4e82600860008673ffffffffffffffffffffffffffffffffffffffff1673ffffffffffffffffffffffffffffffffffffffff16815260200190815260200160002054604051611a46929190612cd5565b60405180910390a2505b50565b600080600760008473ffffffffffffffffffffffffffffffffffffffff1673ffffffffffffffffffffffffffffffffffffffff1681526020019081526020016000205442611aa19190612e21565b9050611aac83610880565b81611ab79190612dc7565b915050919050565b6000611acb838361214b565b611b24578260000182908060018154018082558091505060019003906000526020600020016000909190919091505582600001805490508360010160008481526020019081526020016000208190555060019050611b29565b600090505b92915050565b60007f01ffc9a7000000000000000000000000000000000000000000000000000000007bffffffffffffffffffffffffffffffffffffffffffffffffffffffff1916827bffffffffffffffffffffffffffffffffffffffffffffffffffffffff1916149050919050565b600073ffffffffffffffffffffffffffffffffffffffff168373ffffffffffffffffffffffffffffffffffffffff1614158015611bd65750600081115b15611be557611be483611887565b5b600073ffffffffffffffffffffffffffffffffffffffff168273ffffffffffffffffffffffffffffffffffffffff1614158015611c225750600081115b15611c3157611c3082611887565b5b505050565b600073ffffffffffffffffffffffffffffffffffffffff168373ffffffffffffffffffffffffffffffffffffffff1614158015611ca05750600073ffffffffffffffffffffffffffffffffffffffff168273ffffffffffffffffffffffffffffffffffffffff1614155b8015611cae57506000600954115b15611cd8576000611cca82600954610e9990919063ffffffff16565b9050611cd6838261169b565b505b505050565b606060006002836002611cf09190612dc7565b611cfa9190612d40565b67ffffffffffffffff811115611d39577f4e487b7100000000000000000000000000000000000000000000000000000000600052604160045260246000fd5b6040519080825280601f01601f191660200182016040528015611d6b5781602001600182028036833780820191505090505b5090507f300000000000000000000000000000000000000000000000000000000000000081600081518110611dc9577f4e487b7100000000000000000000000000000000000000000000000000000000600052603260045260246000fd5b60200101907effffffffffffffffffffffffffffffffffffffffffffffffffffffffffffff1916908160001a9053507f780000000000000000000000000000000000000000000000000000000000000081600181518110611e53577f4e487b7100000000000000000000000000000000000000000000000000000000600052603260045260246000fd5b60200101907effffffffffffffffffffffffffffffffffffffffffffffffffffffffffffff1916908160001a90535060006001846002611e939190612dc7565b611e9d9190612d40565b90505b6001811115611f89577f3031323334353637383961626364656600000000000000000000000000000000600f861660108110611f05577f4e487b7100000000000000000000000000000000000000000000000000000000600052603260045260246000fd5b1a60f81b828281518110611f42577f4e487b7100000000000000000000000000000000000000000000000000000000600052603260045260246000fd5b60200101907effffffffffffffffffffffffffffffffffffffffffffffffffffffffffffff1916908160001a905350600485901c945080611f8290612f13565b9050611ea0565b5060008414611fcd576040517f08c379a0000000000000000000000000000000000000000000000000000000008152600401611fc490612b3a565b60405180910390fd5b8091505092915050565b611fe1828261091b565b156120b55760006005600084815260200190815260200160002060000160008373ffffffffffffffffffffffffffffffffffffffff1673ffffffffffffffffffffffffffffffffffffffff16815260200190815260200160002060006101000a81548160ff02191690831515021790555061205a610f3c565b73ffffffffffffffffffffffffffffffffffffffff168173ffffffffffffffffffffffffffffffffffffffff16837ff6391f5c32d9c69d2a47ea670b442974b53935d1edc7fd64eb21e047a839171b60405160405180910390a45b5050565b60006120e1836000018373ffffffffffffffffffffffffffffffffffffffff1660001b61216e565b905092915050565b6000826000018281548110612127577f4e487b7100000000000000000000000000000000000000000000000000000000600052603260045260246000fd5b9060005260206000200154905092915050565b600081600001805490509050919050565b600080836001016000848152602001908152602001600020541415905092915050565b600080836001016000848152602001908152602001600020549050600081146122e85760006001826121a09190612e21565b90506000600186600001805490506121b89190612e21565b90508181146122735760008660000182815481106121ff577f4e487b7100000000000000000000000000000000000000000000000000000000600052603260045260246000fd5b9060005260206000200154905080876000018481548110612249577f4e487b7100000000000000000000000000000000000000000000000000000000600052603260045260246000fd5b90600052602060002001819055508387600101600083815260200190815260200160002081905550505b856000018054806122ad577f4e487b7100000000000000000000000000000000000000000000000000000000600052603160045260246000fd5b6001900381819060005260206000200160009055905585600101600086815260200190815260200160002060009055600193505050506122ee565b60009150505b92915050565b6000813590506123038161300d565b92915050565b60008135905061231881613024565b92915050565b60008135905061232d8161303b565b92915050565b60008135905061234281613052565b92915050565b60006020828403121561235a57600080fd5b6000612368848285016122f4565b91505092915050565b6000806040838503121561238457600080fd5b6000612392858286016122f4565b92505060206123a3858286016122f4565b9150509250929050565b6000806000606084860312156123c257600080fd5b60006123d0868287016122f4565b93505060206123e1868287016122f4565b92505060406123f286828701612333565b9150509250925092565b6000806040838503121561240f57600080fd5b600061241d858286016122f4565b925050602061242e85828601612333565b9150509250929050565b60006020828403121561244a57600080fd5b600061245884828501612309565b91505092915050565b6000806040838503121561247457600080fd5b600061248285828601612309565b9250506020612493858286016122f4565b9150509250929050565b600080604083850312156124b057600080fd5b60006124be85828601612309565b92505060206124cf85828601612333565b9150509250929050565b6000602082840312156124eb57600080fd5b60006124f98482850161231e565b91505092915050565b61250b81612e55565b82525050565b61251a81612e67565b82525050565b61252981612e73565b82525050565b600061253a82612d19565b6125448185612d24565b9350612554818560208601612ee0565b61255d81612ffc565b840191505092915050565b600061257382612d19565b61257d8185612d35565b935061258d818560208601612ee0565b80840191505092915050565b60006125a6602083612d24565b91507f537472696e67733a20686578206c656e67746820696e73756666696369656e746000830152602082019050919050565b60006125e6602383612d24565b91507f45524332303a207472616e7366657220746f20746865207a65726f206164647260008301527f65737300000000000000000000000000000000000000000000000000000000006020830152604082019050919050565b600061264c602283612d24565b91507f45524332303a206275726e20616d6f756e7420657863656564732062616c616e60008301527f63650000000000000000000000000000000000000000000000000000000000006020830152604082019050919050565b60006126b2602283612d24565b91507f45524332303a20617070726f766520746f20746865207a65726f20616464726560008301527f73730000000000000000000000000000000000000000000000000000000000006020830152604082019050919050565b6000612718601d83612d24565b91507f45524332303a20696e73756666696369656e7420616c6c6f77616e63650000006000830152602082019050919050565b6000612758602683612d24565b91507f45524332303a207472616e7366657220616d6f756e742065786365656473206260008301527f616c616e636500000000000000000000000000000000000000000000000000006020830152604082019050919050565b60006127be602183612d24565b91507f45524332303a206275726e2066726f6d20746865207a65726f2061646472657360008301527f73000000000000000000000000000000000000000000000000000000000000006020830152604082019050919050565b6000612824602583612d24565b91507f45524332303a207472616e736665722066726f6d20746865207a65726f20616460008301527f64726573730000000000000000000000000000000000000000000000000000006020830152604082019050919050565b600061288a602483612d24565b91507f45524332303a20617070726f76652066726f6d20746865207a65726f2061646460008301527f72657373000000000000000000000000000000000000000000000000000000006020830152604082019050919050565b60006128f0601783612d35565b91507f416363657373436f6e74726f6c3a206163636f756e74200000000000000000006000830152601782019050919050565b6000612930602583612d24565b91507f45524332303a2064656372656173656420616c6c6f77616e63652062656c6f7760008301527f207a65726f0000000000000000000000000000000000000000000000000000006020830152604082019050919050565b6000612996601183612d35565b91507f206973206d697373696e6720726f6c65200000000000000000000000000000006000830152601182019050919050565b60006129d6602f83612d24565b91507f416363657373436f6e74726f6c3a2063616e206f6e6c792072656e6f756e636560008301527f20726f6c657320666f722073656c6600000000000000000000000000000000006020830152604082019050919050565b6000612a3c601f83612d24565b91507f45524332303a206d696e7420746f20746865207a65726f2061646472657373006000830152602082019050919050565b612a7881612ec9565b82525050565b612a8781612ed3565b82525050565b6000612a98826128e3565b9150612aa48285612568565b9150612aaf82612989565b9150612abb8284612568565b91508190509392505050565b6000602082019050612adc6000830184612502565b92915050565b6000602082019050612af76000830184612511565b92915050565b6000602082019050612b126000830184612520565b92915050565b60006020820190508181036000830152612b32818461252f565b905092915050565b60006020820190508181036000830152612b5381612599565b9050919050565b60006020820190508181036000830152612b73816125d9565b9050919050565b60006020820190508181036000830152612b938161263f565b9050919050565b60006020820190508181036000830152612bb3816126a5565b9050919050565b60006020820190508181036000830152612bd38161270b565b9050919050565b60006020820190508181036000830152612bf38161274b565b9050919050565b60006020820190508181036000830152612c13816127b1565b9050919050565b60006020820190508181036000830152612c3381612817565b9050919050565b60006020820190508181036000830152612c538161287d565b9050919050565b60006020820190508181036000830152612c7381612923565b9050919050565b60006020820190508181036000830152612c93816129c9565b9050919050565b60006020820190508181036000830152612cb381612a2f565b9050919050565b6000602082019050612ccf6000830184612a6f565b92915050565b6000604082019050612cea6000830185612a6f565b612cf76020830184612a6f565b9392505050565b6000602082019050612d136000830184612a7e565b92915050565b600081519050919050565b600082825260208201905092915050565b600081905092915050565b6000612d4b82612ec9565b9150612d5683612ec9565b9250827fffffffffffffffffffffffffffffffffffffffffffffffffffffffffffffffff03821115612d8b57612d8a612f6f565b5b828201905092915050565b6000612da182612ec9565b9150612dac83612ec9565b925082612dbc57612dbb612f9e565b5b828204905092915050565b6000612dd282612ec9565b9150612ddd83612ec9565b9250817fffffffffffffffffffffffffffffffffffffffffffffffffffffffffffffffff0483118215151615612e1657612e15612f6f565b5b828202905092915050565b6000612e2c82612ec9565b9150612e3783612ec9565b925082821015612e4a57612e49612f6f565b5b828203905092915050565b6000612e6082612ea9565b9050919050565b60008115159050919050565b6000819050919050565b60007fffffffff0000000000000000000000000000000000000000000000000000000082169050919050565b600073ffffffffffffffffffffffffffffffffffffffff82169050919050565b6000819050919050565b600060ff82169050919050565b60005b83811015612efe578082015181840152602081019050612ee3565b83811115612f0d576000848401525b50505050565b6000612f1e82612ec9565b91506000821415612f3257612f31612f6f565b5b600182039050919050565b60006002820490506001821680612f5557607f821691505b60208210811415612f6957612f68612fcd565b5b50919050565b7f4e487b7100000000000000000000000000000000000000000000000000000000600052601160045260246000fd5b7f4e487b7100000000000000000000000000000000000000000000000000000000600052601260045260246000fd5b7f4e487b7100000000000000000000000000000000000000000000000000000000600052602260045260246000fd5b6000601f19601f8301169050919050565b61301681612e55565b811461302157600080fd5b50565b61302d81612e73565b811461303857600080fd5b50565b61304481612e7d565b811461304f57600080fd5b50565b61305b81612ec9565b811461306657600080fd5b5056fea2646970667358221220cd2c34ff0c46a089a72367381b20de1c693dcb53a1ce4a172c69a45c4bcfc80364736f6c63430008000033",
  "linkReferences": {},
  "deployedLinkReferences": {}
}