{
  "_format": "hh-sol-artifact-1",
  "contractName": "SteamToken",
  "sourceName": "contracts/tokens/SteamToken.sol",
  "abi": [
    {
      "inputs": [
        {
          "internalType": "address",
          "name": "admin_",
          "type": "address"
        }
      ],
      "stateMutability": "nonpayable",
      "type": "constructor"
    },
    {
      "anonymous": false,
      "inputs": [
        {
          "indexed": true,
          "internalType": "address",
          "name": "owner",
          "type": "address"
        },
        {
          "indexed": true,
          "internalType": "address",
          "name": "spender",
          "type": "address"
        },
        {
          "indexed": false,
          "internalType": "uint256",
          "name": "value",
          "type": "uint256"
        }
      ],
      "name": "Approval",
      "type": "event"
    },
    {
      "anonymous": false,
      "inputs": [
        {
          "indexed": true,
          "internalType": "address",
          "name": "account",
          "type": "address"
        },
        {
          "indexed": false,
          "internalType": "uint256",
          "name": "amount",
          "type": "uint256"
        }
      ],
      "name": "ClaimReward",
      "type": "event"
    },
    {
      "anonymous": false,
      "inputs": [
        {
          "indexed": true,
          "internalType": "address",
          "name": "account",
          "type": "address"
        },
        {
          "indexed": false,
          "internalType": "uint256",
          "name": "amount",
          "type": "uint256"
        },
        {
          "indexed": false,
          "internalType": "uint256",
          "name": "claimableReward",
          "type": "uint256"
        }
      ],
      "name": "Reward",
      "type": "event"
    },
    {
      "anonymous": false,
      "inputs": [
        {
          "indexed": true,
          "internalType": "bytes32",
          "name": "role",
          "type": "bytes32"
        },
        {
          "indexed": true,
          "internalType": "bytes32",
          "name": "previousAdminRole",
          "type": "bytes32"
        },
        {
          "indexed": true,
          "internalType": "bytes32",
          "name": "newAdminRole",
          "type": "bytes32"
        }
      ],
      "name": "RoleAdminChanged",
      "type": "event"
    },
    {
      "anonymous": false,
      "inputs": [
        {
          "indexed": true,
          "internalType": "bytes32",
          "name": "role",
          "type": "bytes32"
        },
        {
          "indexed": true,
          "internalType": "address",
          "name": "account",
          "type": "address"
        },
        {
          "indexed": true,
          "internalType": "address",
          "name": "sender",
          "type": "address"
        }
      ],
      "name": "RoleGranted",
      "type": "event"
    },
    {
      "anonymous": false,
      "inputs": [
        {
          "indexed": true,
          "internalType": "bytes32",
          "name": "role",
          "type": "bytes32"
        },
        {
          "indexed": true,
          "internalType": "address",
          "name": "account",
          "type": "address"
        },
        {
          "indexed": true,
          "internalType": "address",
          "name": "sender",
          "type": "address"
        }
      ],
      "name": "RoleRevoked",
      "type": "event"
    },
    {
      "anonymous": false,
      "inputs": [
        {
          "indexed": true,
          "internalType": "address",
          "name": "from",
          "type": "address"
        },
        {
          "indexed": true,
          "internalType": "address",
          "name": "to",
          "type": "address"
        },
        {
          "indexed": false,
          "internalType": "uint256",
          "name": "value",
          "type": "uint256"
        }
      ],
      "name": "Transfer",
      "type": "event"
    },
    {
      "inputs": [],
      "name": "DEFAULT_ADMIN_ROLE",
      "outputs": [
        {
          "internalType": "bytes32",
          "name": "",
          "type": "bytes32"
        }
      ],
      "stateMutability": "view",
      "type": "function"
    },
    {
      "inputs": [],
      "name": "MINTER_BURNER_ROLE",
      "outputs": [
        {
          "internalType": "bytes32",
          "name": "",
          "type": "bytes32"
        }
      ],
      "stateMutability": "view",
      "type": "function"
    },
    {
      "inputs": [
        {
          "internalType": "address",
          "name": "owner",
          "type": "address"
        },
        {
          "internalType": "address",
          "name": "spender",
          "type": "address"
        }
      ],
      "name": "allowance",
      "outputs": [
        {
          "internalType": "uint256",
          "name": "",
          "type": "uint256"
        }
      ],
      "stateMutability": "view",
      "type": "function"
    },
    {
      "inputs": [
        {
          "internalType": "address",
          "name": "spender",
          "type": "address"
        },
        {
          "internalType": "uint256",
          "name": "amount",
          "type": "uint256"
        }
      ],
      "name": "approve",
      "outputs": [
        {
          "internalType": "bool",
          "name": "",
          "type": "bool"
        }
      ],
      "stateMutability": "nonpayable",
      "type": "function"
    },
    {
      "inputs": [
        {
          "internalType": "address",
          "name": "account",
          "type": "address"
        }
      ],
      "name": "balanceOf",
      "outputs": [
        {
          "internalType": "uint256",
          "name": "",
          "type": "uint256"
        }
      ],
      "stateMutability": "view",
      "type": "function"
    },
    {
      "inputs": [
        {
          "internalType": "address",
          "name": "account",
          "type": "address"
        },
        {
          "internalType": "uint256",
          "name": "value",
          "type": "uint256"
        }
      ],
      "name": "burn",
      "outputs": [],
      "stateMutability": "nonpayable",
      "type": "function"
    },
    {
      "inputs": [
        {
          "internalType": "address",
          "name": "account",
          "type": "address"
        }
      ],
      "name": "claimReward",
      "outputs": [
        {
          "internalType": "uint256",
          "name": "",
          "type": "uint256"
        }
      ],
      "stateMutability": "nonpayable",
      "type": "function"
    },
    {
      "inputs": [
        {
          "internalType": "address",
          "name": "account",
          "type": "address"
        }
      ],
      "name": "claimableReward",
      "outputs": [
        {
          "internalType": "uint256",
          "name": "",
          "type": "uint256"
        }
      ],
      "stateMutability": "view",
      "type": "function"
    },
    {
      "inputs": [],
      "name": "decimals",
      "outputs": [
        {
          "internalType": "uint8",
          "name": "",
          "type": "uint8"
        }
      ],
      "stateMutability": "view",
      "type": "function"
    },
    {
      "inputs": [
        {
          "internalType": "address",
          "name": "spender",
          "type": "address"
        },
        {
          "internalType": "uint256",
          "name": "subtractedValue",
          "type": "uint256"
        }
      ],
      "name": "decreaseAllowance",
      "outputs": [
        {
          "internalType": "bool",
          "name": "",
          "type": "bool"
        }
      ],
      "stateMutability": "nonpayable",
      "type": "function"
    },
    {
      "inputs": [
        {
          "internalType": "bytes32",
          "name": "role",
          "type": "bytes32"
        }
      ],
      "name": "getRoleAdmin",
      "outputs": [
        {
          "internalType": "bytes32",
          "name": "",
          "type": "bytes32"
        }
      ],
      "stateMutability": "view",
      "type": "function"
    },
    {
      "inputs": [
        {
          "internalType": "bytes32",
          "name": "role",
          "type": "bytes32"
        },
        {
          "internalType": "uint256",
          "name": "index",
          "type": "uint256"
        }
      ],
      "name": "getRoleMember",
      "outputs": [
        {
          "internalType": "address",
          "name": "",
          "type": "address"
        }
      ],
      "stateMutability": "view",
      "type": "function"
    },
    {
      "inputs": [
        {
          "internalType": "bytes32",
          "name": "role",
          "type": "bytes32"
        }
      ],
      "name": "getRoleMemberCount",
      "outputs": [
        {
          "internalType": "uint256",
          "name": "",
          "type": "uint256"
        }
      ],
      "stateMutability": "view",
      "type": "function"
    },
    {
      "inputs": [
        {
          "internalType": "bytes32",
          "name": "role",
          "type": "bytes32"
        },
        {
          "internalType": "address",
          "name": "account",
          "type": "address"
        }
      ],
      "name": "grantRole",
      "outputs": [],
      "stateMutability": "nonpayable",
      "type": "function"
    },
    {
      "inputs": [
        {
          "internalType": "bytes32",
          "name": "role",
          "type": "bytes32"
        },
        {
          "internalType": "address",
          "name": "account",
          "type": "address"
        }
      ],
      "name": "hasRole",
      "outputs": [
        {
          "internalType": "bool",
          "name": "",
          "type": "bool"
        }
      ],
      "stateMutability": "view",
      "type": "function"
    },
    {
      "inputs": [
        {
          "internalType": "address",
          "name": "spender",
          "type": "address"
        },
        {
          "internalType": "uint256",
          "name": "addedValue",
          "type": "uint256"
        }
      ],
      "name": "increaseAllowance",
      "outputs": [
        {
          "internalType": "bool",
          "name": "",
          "type": "bool"
        }
      ],
      "stateMutability": "nonpayable",
      "type": "function"
    },
    {
      "inputs": [
        {
          "internalType": "address",
          "name": "account",
          "type": "address"
        },
        {
          "internalType": "uint256",
          "name": "value",
          "type": "uint256"
        }
      ],
      "name": "mint",
      "outputs": [],
      "stateMutability": "nonpayable",
      "type": "function"
    },
    {
      "inputs": [],
      "name": "name",
      "outputs": [
        {
          "internalType": "string",
          "name": "",
          "type": "string"
        }
      ],
      "stateMutability": "view",
      "type": "function"
    },
    {
      "inputs": [
        {
          "internalType": "bytes32",
          "name": "role",
          "type": "bytes32"
        },
        {
          "internalType": "address",
          "name": "account",
          "type": "address"
        }
      ],
      "name": "renounceRole",
      "outputs": [],
      "stateMutability": "nonpayable",
      "type": "function"
    },
    {
      "inputs": [
        {
          "internalType": "bytes32",
          "name": "role",
          "type": "bytes32"
        },
        {
          "internalType": "address",
          "name": "account",
          "type": "address"
        }
      ],
      "name": "revokeRole",
      "outputs": [],
      "stateMutability": "nonpayable",
      "type": "function"
    },
    {
      "inputs": [
        {
          "internalType": "bytes4",
          "name": "interfaceId",
          "type": "bytes4"
        }
      ],
      "name": "supportsInterface",
      "outputs": [
        {
          "internalType": "bool",
          "name": "",
          "type": "bool"
        }
      ],
      "stateMutability": "view",
      "type": "function"
    },
    {
      "inputs": [],
      "name": "symbol",
      "outputs": [
        {
          "internalType": "string",
          "name": "",
          "type": "string"
        }
      ],
      "stateMutability": "view",
      "type": "function"
    },
    {
      "inputs": [],
      "name": "totalSupply",
      "outputs": [
        {
          "internalType": "uint256",
          "name": "",
          "type": "uint256"
        }
      ],
      "stateMutability": "view",
      "type": "function"
    },
    {
      "inputs": [
        {
          "internalType": "address",
          "name": "to",
          "type": "address"
        },
        {
          "internalType": "uint256",
          "name": "amount",
          "type": "uint256"
        }
      ],
      "name": "transfer",
      "outputs": [
        {
          "internalType": "bool",
          "name": "",
          "type": "bool"
        }
      ],
      "stateMutability": "nonpayable",
      "type": "function"
    },
    {
      "inputs": [
        {
          "internalType": "address",
          "name": "from",
          "type": "address"
        },
        {
          "internalType": "address",
          "name": "to",
          "type": "address"
        },
        {
          "internalType": "uint256",
          "name": "amount",
          "type": "uint256"
        }
      ],
      "name": "transferFrom",
      "outputs": [
        {
          "internalType": "bool",
          "name": "",
          "type": "bool"
        }
      ],
      "stateMutability": "nonpayable",
      "type": "function"
    }
  ],
  "bytecode": "0x60806040523480156200001157600080fd5b5060405162003ba838038062003ba8833981810160405281019062000037919062000943565b6040518060400160405280600581526020017f535445414d0000000000000000000000000000000000000000000000000000008152506040518060400160405280600581526020017f535445414d0000000000000000000000000000000000000000000000000000008152508282828282828160039080519060200190620000c19291906200087c565b508060049080519060200190620000da9291906200087c565b505050620000f26000801b826200011b60201b60201c565b505050505050620001143369d3c21bcecceda10000006200013160201b60201c565b5062000c24565b6200012d8282620002aa60201b60201c565b5050565b600073ffffffffffffffffffffffffffffffffffffffff168273ffffffffffffffffffffffffffffffffffffffff161415620001a4576040517f08c379a00000000000000000000000000000000000000000000000000000000081526004016200019b90620009c2565b60405180910390fd5b620001b860008383620002f260201b60201c565b8060026000828254620001cc919062000a3f565b92505081905550806000808473ffffffffffffffffffffffffffffffffffffffff1673ffffffffffffffffffffffffffffffffffffffff168152602001908152602001600020600082825462000223919062000a3f565b925050819055508173ffffffffffffffffffffffffffffffffffffffff16600073ffffffffffffffffffffffffffffffffffffffff167fddf252ad1be2c89b69c2b068fc378daa952ba7f163c4a11628f55a4df523b3ef836040516200028a9190620009e4565b60405180910390a3620002a660008383620003a360201b60201c565b5050565b620002c18282620003a860201b62000d881760201c565b620002ed81600660008581526020019081526020016000206200049a60201b62000e691790919060201c565b505050565b600073ffffffffffffffffffffffffffffffffffffffff168373ffffffffffffffffffffffffffffffffffffffff1614158015620003305750600081115b1562000348576200034783620004d260201b60201c565b5b600073ffffffffffffffffffffffffffffffffffffffff168273ffffffffffffffffffffffffffffffffffffffff1614158015620003865750600081115b156200039e576200039d82620004d260201b60201c565b5b505050565b505050565b620003ba8282620006ac60201b60201c565b620004965760016005600084815260200190815260200160002060000160008373ffffffffffffffffffffffffffffffffffffffff1673ffffffffffffffffffffffffffffffffffffffff16815260200190815260200160002060006101000a81548160ff0219169083151502179055506200043b6200071760201b60201c565b73ffffffffffffffffffffffffffffffffffffffff168173ffffffffffffffffffffffffffffffffffffffff16837f2f8788117e7eff1d82e926ec794901d17c78024a50270940304540a733656f0d60405160405180910390a45b5050565b6000620004ca836000018373ffffffffffffffffffffffffffffffffffffffff1660001b6200071f60201b60201c565b905092915050565b6000600760008373ffffffffffffffffffffffffffffffffffffffff1673ffffffffffffffffffffffffffffffffffffffff168152602001908152602001600020541415620005655742600760008373ffffffffffffffffffffffffffffffffffffffff1673ffffffffffffffffffffffffffffffffffffffff16815260200190815260200160002081905550620006a9565b600062000578826200079960201b60201c565b905042600760008473ffffffffffffffffffffffffffffffffffffffff1673ffffffffffffffffffffffffffffffffffffffff1681526020019081526020016000208190555080600860008473ffffffffffffffffffffffffffffffffffffffff1673ffffffffffffffffffffffffffffffffffffffff16815260200190815260200160002060008282546200060f919062000a3f565b925050819055508173ffffffffffffffffffffffffffffffffffffffff167f02a6a2be713fedf52f113c0a759f1c1a23a113476d9b1b1a2a453c910660de4e82600860008673ffffffffffffffffffffffffffffffffffffffff1673ffffffffffffffffffffffffffffffffffffffff168152602001908152602001600020546040516200069f92919062000a01565b60405180910390a2505b50565b60006005600084815260200190815260200160002060000160008373ffffffffffffffffffffffffffffffffffffffff1673ffffffffffffffffffffffffffffffffffffffff16815260200190815260200160002060009054906101000a900460ff16905092915050565b600033905090565b60006200073383836200081160201b60201c565b6200078e57826000018290806001815401808255809150506001900390600052602060002001600090919091909150558260000180549050836001016000848152602001908152602001600020819055506001905062000793565b600090505b92915050565b600080600760008473ffffffffffffffffffffffffffffffffffffffff1673ffffffffffffffffffffffffffffffffffffffff1681526020019081526020016000205442620007e9919062000afd565b9050620007fc836200083460201b60201c565b8162000809919062000a9c565b915050919050565b600080836001016000848152602001908152602001600020541415905092915050565b60008060008373ffffffffffffffffffffffffffffffffffffffff1673ffffffffffffffffffffffffffffffffffffffff168152602001908152602001600020549050919050565b8280546200088a9062000b76565b90600052602060002090601f016020900481019282620008ae5760008555620008fa565b82601f10620008c957805160ff1916838001178555620008fa565b82800160010185558215620008fa579182015b82811115620008f9578251825591602001919060010190620008dc565b5b5090506200090991906200090d565b5090565b5b80821115620009285760008160009055506001016200090e565b5090565b6000815190506200093d8162000c0a565b92915050565b6000602082840312156200095657600080fd5b600062000966848285016200092c565b91505092915050565b60006200097e601f8362000a2e565b91507f45524332303a206d696e7420746f20746865207a65726f2061646472657373006000830152602082019050919050565b620009bc8162000b6c565b82525050565b60006020820190508181036000830152620009dd816200096f565b9050919050565b6000602082019050620009fb6000830184620009b1565b92915050565b600060408201905062000a186000830185620009b1565b62000a276020830184620009b1565b9392505050565b600082825260208201905092915050565b600062000a4c8262000b6c565b915062000a598362000b6c565b9250827fffffffffffffffffffffffffffffffffffffffffffffffffffffffffffffffff0382111562000a915762000a9062000bac565b5b828201905092915050565b600062000aa98262000b6c565b915062000ab68362000b6c565b9250817fffffffffffffffffffffffffffffffffffffffffffffffffffffffffffffffff048311821515161562000af25762000af162000bac565b5b828202905092915050565b600062000b0a8262000b6c565b915062000b178362000b6c565b92508282101562000b2d5762000b2c62000bac565b5b828203905092915050565b600062000b458262000b4c565b9050919050565b600073ffffffffffffffffffffffffffffffffffffffff82169050919050565b6000819050919050565b6000600282049050600182168062000b8f57607f821691505b6020821081141562000ba65762000ba562000bdb565b5b50919050565b7f4e487b7100000000000000000000000000000000000000000000000000000000600052601160045260246000fd5b7f4e487b7100000000000000000000000000000000000000000000000000000000600052602260045260246000fd5b62000c158162000b38565b811462000c2157600080fd5b50565b612f748062000c346000396000f3fe608060405234801561001057600080fd5b50600436106101735760003560e01c806372c32860116100de578063a457c2d711610097578063d279c19111610071578063d279c191146104ac578063d547741f146104dc578063dd62ed3e146104f8578063e95034251461052857610173565b8063a457c2d71461041c578063a9059cbb1461044c578063ca15c8731461047c57610173565b806372c32860146103465780639010d07c1461036457806391d148541461039457806395d89b41146103c45780639dc29fac146103e2578063a217fddf146103fe57610173565b80632f2ff15d116101305780632f2ff15d14610274578063313ce5671461029057806336568abe146102ae57806339509351146102ca57806340c10f19146102fa57806370a082311461031657610173565b806301ffc9a71461017857806306fdde03146101a8578063095ea7b3146101c657806318160ddd146101f657806323b872dd14610214578063248a9ca314610244575b600080fd5b610192600480360381019061018d919061240e565b610558565b60405161019f9190612a17565b60405180910390f35b6101b06105d2565b6040516101bd9190612a4d565b60405180910390f35b6101e060048036038101906101db9190612331565b610664565b6040516101ed9190612a17565b60405180910390f35b6101fe610687565b60405161020b9190612bef565b60405180910390f35b61022e600480360381019061022991906122e2565b610691565b60405161023b9190612a17565b60405180910390f35b61025e6004803603810190610259919061236d565b6106c0565b60405161026b9190612a32565b60405180910390f35b61028e60048036038101906102899190612396565b6106e0565b005b610298610709565b6040516102a59190612c33565b60405180910390f35b6102c860048036038101906102c39190612396565b610712565b005b6102e460048036038101906102df9190612331565b610795565b6040516102f19190612a17565b60405180910390f35b610314600480360381019061030f9190612331565b61083f565b005b610330600480360381019061032b919061227d565b610880565b60405161033d9190612bef565b60405180910390f35b61034e6108c8565b60405161035b9190612a32565b60405180910390f35b61037e600480360381019061037991906123d2565b6108ec565b60405161038b91906129fc565b60405180910390f35b6103ae60048036038101906103a99190612396565b61091b565b6040516103bb9190612a17565b60405180910390f35b6103cc610986565b6040516103d99190612a4d565b60405180910390f35b6103fc60048036038101906103f79190612331565b610a18565b005b610406610a59565b6040516104139190612a32565b60405180910390f35b61043660048036038101906104319190612331565b610a60565b6040516104439190612a17565b60405180910390f35b61046660048036038101906104619190612331565b610b4a565b6040516104739190612a17565b60405180910390f35b6104966004803603810190610491919061236d565b610b6d565b6040516104a39190612bef565b60405180910390f35b6104c660048036038101906104c1919061227d565b610b91565b6040516104d39190612bef565b60405180910390f35b6104f660048036038101906104f19190612396565b610c7c565b005b610512600480360381019061050d91906122a6565b610ca5565b60405161051f9190612bef565b60405180910390f35b610542600480360381019061053d919061227d565b610d2c565b60405161054f9190612bef565b60405180910390f35b60007f5a05180f000000000000000000000000000000000000000000000000000000007bffffffffffffffffffffffffffffffffffffffffffffffffffffffff1916827bffffffffffffffffffffffffffffffffffffffffffffffffffffffff191614806105cb57506105ca82610e99565b5b9050919050565b6060600380546105e190612e41565b80601f016020809104026020016040519081016040528092919081815260200182805461060d90612e41565b801561065a5780601f1061062f5761010080835404028352916020019161065a565b820191906000526020600020905b81548152906001019060200180831161063d57829003601f168201915b5050505050905090565b60008061066f610f13565b905061067c818585610f1b565b600191505092915050565b6000600254905090565b60008061069c610f13565b90506106a98582856110e6565b6106b4858585611172565b60019150509392505050565b600060056000838152602001908152602001600020600101549050919050565b6106e9826106c0565b6106fa816106f5610f13565b6113f3565b6107048383611490565b505050565b60006012905090565b61071a610f13565b73ffffffffffffffffffffffffffffffffffffffff168173ffffffffffffffffffffffffffffffffffffffff1614610787576040517f08c379a000000000000000000000000000000000000000000000000000000000815260040161077e90612baf565b60405180910390fd5b61079182826114c4565b5050565b6000806107a0610f13565b9050610834818585600160008673ffffffffffffffffffffffffffffffffffffffff1673ffffffffffffffffffffffffffffffffffffffff16815260200190815260200160002060008973ffffffffffffffffffffffffffffffffffffffff1673ffffffffffffffffffffffffffffffffffffffff1681526020019081526020016000205461082f9190612c75565b610f1b565b600191505092915050565b7fcfd53186d792f1ec9d0679afc2dc3ffc86fc31fe1e0f342b838eb6c3eade62b36108718161086c610f13565b6113f3565b61087b83836114f8565b505050565b60008060008373ffffffffffffffffffffffffffffffffffffffff1673ffffffffffffffffffffffffffffffffffffffff168152602001908152602001600020549050919050565b7fcfd53186d792f1ec9d0679afc2dc3ffc86fc31fe1e0f342b838eb6c3eade62b381565b6000610913826006600086815260200190815260200160002061165890919063ffffffff16565b905092915050565b60006005600084815260200190815260200160002060000160008373ffffffffffffffffffffffffffffffffffffffff1673ffffffffffffffffffffffffffffffffffffffff16815260200190815260200160002060009054906101000a900460ff16905092915050565b60606004805461099590612e41565b80601f01602080910402602001604051908101604052809291908181526020018280546109c190612e41565b8015610a0e5780601f106109e357610100808354040283529160200191610a0e565b820191906000526020600020905b8154815290600101906020018083116109f157829003601f168201915b5050505050905090565b7fcfd53186d792f1ec9d0679afc2dc3ffc86fc31fe1e0f342b838eb6c3eade62b3610a4a81610a45610f13565b6113f3565b610a548383611672565b505050565b6000801b81565b600080610a6b610f13565b90506000600160008373ffffffffffffffffffffffffffffffffffffffff1673ffffffffffffffffffffffffffffffffffffffff16815260200190815260200160002060008673ffffffffffffffffffffffffffffffffffffffff1673ffffffffffffffffffffffffffffffffffffffff16815260200190815260200160002054905083811015610b31576040517f08c379a0000000000000000000000000000000000000000000000000000000008152600401610b2890612b8f565b60405180910390fd5b610b3e8286868403610f1b565b60019250505092915050565b600080610b55610f13565b9050610b62818585611172565b600191505092915050565b6000610b8a60066000848152602001908152602001600020611849565b9050919050565b6000610b9c8261185e565b6000600860008473ffffffffffffffffffffffffffffffffffffffff1673ffffffffffffffffffffffffffffffffffffffff1681526020019081526020016000205490506000600860008573ffffffffffffffffffffffffffffffffffffffff1673ffffffffffffffffffffffffffffffffffffffff168152602001908152602001600020819055508273ffffffffffffffffffffffffffffffffffffffff167fba8de60c3403ec381d1d484652ea1980e3c3e56359195c92525bff4ce47ad98e82604051610c6b9190612bef565b60405180910390a280915050919050565b610c85826106c0565b610c9681610c91610f13565b6113f3565b610ca083836114c4565b505050565b6000600160008473ffffffffffffffffffffffffffffffffffffffff1673ffffffffffffffffffffffffffffffffffffffff16815260200190815260200160002060008373ffffffffffffffffffffffffffffffffffffffff1673ffffffffffffffffffffffffffffffffffffffff16815260200190815260200160002054905092915050565b6000610d3782611a2a565b600860008473ffffffffffffffffffffffffffffffffffffffff1673ffffffffffffffffffffffffffffffffffffffff16815260200190815260200160002054610d819190612c75565b9050919050565b610d92828261091b565b610e655760016005600084815260200190815260200160002060000160008373ffffffffffffffffffffffffffffffffffffffff1673ffffffffffffffffffffffffffffffffffffffff16815260200190815260200160002060006101000a81548160ff021916908315150217905550610e0a610f13565b73ffffffffffffffffffffffffffffffffffffffff168173ffffffffffffffffffffffffffffffffffffffff16837f2f8788117e7eff1d82e926ec794901d17c78024a50270940304540a733656f0d60405160405180910390a45b5050565b6000610e91836000018373ffffffffffffffffffffffffffffffffffffffff1660001b611a96565b905092915050565b60007f7965db0b000000000000000000000000000000000000000000000000000000007bffffffffffffffffffffffffffffffffffffffffffffffffffffffff1916827bffffffffffffffffffffffffffffffffffffffffffffffffffffffff19161480610f0c5750610f0b82611b06565b5b9050919050565b600033905090565b600073ffffffffffffffffffffffffffffffffffffffff168373ffffffffffffffffffffffffffffffffffffffff161415610f8b576040517f08c379a0000000000000000000000000000000000000000000000000000000008152600401610f8290612b6f565b60405180910390fd5b600073ffffffffffffffffffffffffffffffffffffffff168273ffffffffffffffffffffffffffffffffffffffff161415610ffb576040517f08c379a0000000000000000000000000000000000000000000000000000000008152600401610ff290612acf565b60405180910390fd5b80600160008573ffffffffffffffffffffffffffffffffffffffff1673ffffffffffffffffffffffffffffffffffffffff16815260200190815260200160002060008473ffffffffffffffffffffffffffffffffffffffff1673ffffffffffffffffffffffffffffffffffffffff168152602001908152602001600020819055508173ffffffffffffffffffffffffffffffffffffffff168373ffffffffffffffffffffffffffffffffffffffff167f8c5be1e5ebec7d5bd14f71427d1e84f3dd0314c0f7b2291e5b200ac8c7c3b925836040516110d99190612bef565b60405180910390a3505050565b60006110f28484610ca5565b90507fffffffffffffffffffffffffffffffffffffffffffffffffffffffffffffffff811461116c578181101561115e576040517f08c379a000000000000000000000000000000000000000000000000000000000815260040161115590612aef565b60405180910390fd5b61116b8484848403610f1b565b5b50505050565b600073ffffffffffffffffffffffffffffffffffffffff168373ffffffffffffffffffffffffffffffffffffffff1614156111e2576040517f08c379a00000000000000000000000000000000000000000000000000000000081526004016111d990612b4f565b60405180910390fd5b600073ffffffffffffffffffffffffffffffffffffffff168273ffffffffffffffffffffffffffffffffffffffff161415611252576040517f08c379a000000000000000000000000000000000000000000000000000000000815260040161124990612a8f565b60405180910390fd5b61125d838383611b70565b60008060008573ffffffffffffffffffffffffffffffffffffffff1673ffffffffffffffffffffffffffffffffffffffff168152602001908152602001600020549050818110156112e3576040517f08c379a00000000000000000000000000000000000000000000000000000000081526004016112da90612b0f565b60405180910390fd5b8181036000808673ffffffffffffffffffffffffffffffffffffffff1673ffffffffffffffffffffffffffffffffffffffff16815260200190815260200160002081905550816000808573ffffffffffffffffffffffffffffffffffffffff1673ffffffffffffffffffffffffffffffffffffffff16815260200190815260200160002060008282546113769190612c75565b925050819055508273ffffffffffffffffffffffffffffffffffffffff168473ffffffffffffffffffffffffffffffffffffffff167fddf252ad1be2c89b69c2b068fc378daa952ba7f163c4a11628f55a4df523b3ef846040516113da9190612bef565b60405180910390a36113ed848484611c0d565b50505050565b6113fd828261091b565b61148c576114228173ffffffffffffffffffffffffffffffffffffffff166014611c12565b6114308360001c6020611c12565b6040516020016114419291906129c2565b6040516020818303038152906040526040517f08c379a00000000000000000000000000000000000000000000000000000000081526004016114839190612a4d565b60405180910390fd5b5050565b61149a8282610d88565b6114bf8160066000858152602001908152602001600020610e6990919063ffffffff16565b505050565b6114ce8282611f0c565b6114f38160066000858152602001908152602001600020611fee90919063ffffffff16565b505050565b600073ffffffffffffffffffffffffffffffffffffffff168273ffffffffffffffffffffffffffffffffffffffff161415611568576040517f08c379a000000000000000000000000000000000000000000000000000000000815260040161155f90612bcf565b60405180910390fd5b61157460008383611b70565b80600260008282546115869190612c75565b92505081905550806000808473ffffffffffffffffffffffffffffffffffffffff1673ffffffffffffffffffffffffffffffffffffffff16815260200190815260200160002060008282546115db9190612c75565b925050819055508173ffffffffffffffffffffffffffffffffffffffff16600073ffffffffffffffffffffffffffffffffffffffff167fddf252ad1be2c89b69c2b068fc378daa952ba7f163c4a11628f55a4df523b3ef836040516116409190612bef565b60405180910390a361165460008383611c0d565b5050565b6000611667836000018361201e565b60001c905092915050565b600073ffffffffffffffffffffffffffffffffffffffff168273ffffffffffffffffffffffffffffffffffffffff1614156116e2576040517f08c379a00000000000000000000000000000000000000000000000000000000081526004016116d990612b2f565b60405180910390fd5b6116ee82600083611b70565b60008060008473ffffffffffffffffffffffffffffffffffffffff1673ffffffffffffffffffffffffffffffffffffffff16815260200190815260200160002054905081811015611774576040517f08c379a000000000000000000000000000000000000000000000000000000000815260040161176b90612aaf565b60405180910390fd5b8181036000808573ffffffffffffffffffffffffffffffffffffffff1673ffffffffffffffffffffffffffffffffffffffff1681526020019081526020016000208190555081600260008282546117cb9190612d25565b92505081905550600073ffffffffffffffffffffffffffffffffffffffff168373ffffffffffffffffffffffffffffffffffffffff167fddf252ad1be2c89b69c2b068fc378daa952ba7f163c4a11628f55a4df523b3ef846040516118309190612bef565b60405180910390a361184483600084611c0d565b505050565b60006118578260000161206f565b9050919050565b6000600760008373ffffffffffffffffffffffffffffffffffffffff1673ffffffffffffffffffffffffffffffffffffffff1681526020019081526020016000205414156118ef5742600760008373ffffffffffffffffffffffffffffffffffffffff1673ffffffffffffffffffffffffffffffffffffffff16815260200190815260200160002081905550611a27565b60006118fa82611a2a565b905042600760008473ffffffffffffffffffffffffffffffffffffffff1673ffffffffffffffffffffffffffffffffffffffff1681526020019081526020016000208190555080600860008473ffffffffffffffffffffffffffffffffffffffff1673ffffffffffffffffffffffffffffffffffffffff168152602001908152602001600020600082825461198f9190612c75565b925050819055508173ffffffffffffffffffffffffffffffffffffffff167f02a6a2be713fedf52f113c0a759f1c1a23a113476d9b1b1a2a453c910660de4e82600860008673ffffffffffffffffffffffffffffffffffffffff1673ffffffffffffffffffffffffffffffffffffffff16815260200190815260200160002054604051611a1d929190612c0a565b60405180910390a2505b50565b600080600760008473ffffffffffffffffffffffffffffffffffffffff1673ffffffffffffffffffffffffffffffffffffffff1681526020019081526020016000205442611a789190612d25565b9050611a8383610880565b81611a8e9190612ccb565b915050919050565b6000611aa28383612080565b611afb578260000182908060018154018082558091505060019003906000526020600020016000909190919091505582600001805490508360010160008481526020019081526020016000208190555060019050611b00565b600090505b92915050565b60007f01ffc9a7000000000000000000000000000000000000000000000000000000007bffffffffffffffffffffffffffffffffffffffffffffffffffffffff1916827bffffffffffffffffffffffffffffffffffffffffffffffffffffffff1916149050919050565b600073ffffffffffffffffffffffffffffffffffffffff168373ffffffffffffffffffffffffffffffffffffffff1614158015611bad5750600081115b15611bbc57611bbb8361185e565b5b600073ffffffffffffffffffffffffffffffffffffffff168273ffffffffffffffffffffffffffffffffffffffff1614158015611bf95750600081115b15611c0857611c078261185e565b5b505050565b505050565b606060006002836002611c259190612ccb565b611c2f9190612c75565b67ffffffffffffffff811115611c6e577f4e487b7100000000000000000000000000000000000000000000000000000000600052604160045260246000fd5b6040519080825280601f01601f191660200182016040528015611ca05781602001600182028036833780820191505090505b5090507f300000000000000000000000000000000000000000000000000000000000000081600081518110611cfe577f4e487b7100000000000000000000000000000000000000000000000000000000600052603260045260246000fd5b60200101907effffffffffffffffffffffffffffffffffffffffffffffffffffffffffffff1916908160001a9053507f780000000000000000000000000000000000000000000000000000000000000081600181518110611d88577f4e487b7100000000000000000000000000000000000000000000000000000000600052603260045260246000fd5b60200101907effffffffffffffffffffffffffffffffffffffffffffffffffffffffffffff1916908160001a90535060006001846002611dc89190612ccb565b611dd29190612c75565b90505b6001811115611ebe577f3031323334353637383961626364656600000000000000000000000000000000600f861660108110611e3a577f4e487b7100000000000000000000000000000000000000000000000000000000600052603260045260246000fd5b1a60f81b828281518110611e77577f4e487b7100000000000000000000000000000000000000000000000000000000600052603260045260246000fd5b60200101907effffffffffffffffffffffffffffffffffffffffffffffffffffffffffffff1916908160001a905350600485901c945080611eb790612e17565b9050611dd5565b5060008414611f02576040517f08c379a0000000000000000000000000000000000000000000000000000000008152600401611ef990612a6f565b60405180910390fd5b8091505092915050565b611f16828261091b565b15611fea5760006005600084815260200190815260200160002060000160008373ffffffffffffffffffffffffffffffffffffffff1673ffffffffffffffffffffffffffffffffffffffff16815260200190815260200160002060006101000a81548160ff021916908315150217905550611f8f610f13565b73ffffffffffffffffffffffffffffffffffffffff168173ffffffffffffffffffffffffffffffffffffffff16837ff6391f5c32d9c69d2a47ea670b442974b53935d1edc7fd64eb21e047a839171b60405160405180910390a45b5050565b6000612016836000018373ffffffffffffffffffffffffffffffffffffffff1660001b6120a3565b905092915050565b600082600001828154811061205c577f4e487b7100000000000000000000000000000000000000000000000000000000600052603260045260246000fd5b9060005260206000200154905092915050565b600081600001805490509050919050565b600080836001016000848152602001908152602001600020541415905092915050565b6000808360010160008481526020019081526020016000205490506000811461221d5760006001826120d59190612d25565b90506000600186600001805490506120ed9190612d25565b90508181146121a8576000866000018281548110612134577f4e487b7100000000000000000000000000000000000000000000000000000000600052603260045260246000fd5b906000526020600020015490508087600001848154811061217e577f4e487b7100000000000000000000000000000000000000000000000000000000600052603260045260246000fd5b90600052602060002001819055508387600101600083815260200190815260200160002081905550505b856000018054806121e2577f4e487b7100000000000000000000000000000000000000000000000000000000600052603160045260246000fd5b600190038181906000526020600020016000905590558560010160008681526020019081526020016000206000905560019350505050612223565b60009150505b92915050565b60008135905061223881612ee2565b92915050565b60008135905061224d81612ef9565b92915050565b60008135905061226281612f10565b92915050565b60008135905061227781612f27565b92915050565b60006020828403121561228f57600080fd5b600061229d84828501612229565b91505092915050565b600080604083850312156122b957600080fd5b60006122c785828601612229565b92505060206122d885828601612229565b9150509250929050565b6000806000606084860312156122f757600080fd5b600061230586828701612229565b935050602061231686828701612229565b925050604061232786828701612268565b9150509250925092565b6000806040838503121561234457600080fd5b600061235285828601612229565b925050602061236385828601612268565b9150509250929050565b60006020828403121561237f57600080fd5b600061238d8482850161223e565b91505092915050565b600080604083850312156123a957600080fd5b60006123b78582860161223e565b92505060206123c885828601612229565b9150509250929050565b600080604083850312156123e557600080fd5b60006123f38582860161223e565b925050602061240485828601612268565b9150509250929050565b60006020828403121561242057600080fd5b600061242e84828501612253565b91505092915050565b61244081612d59565b82525050565b61244f81612d6b565b82525050565b61245e81612d77565b82525050565b600061246f82612c4e565b6124798185612c59565b9350612489818560208601612de4565b61249281612ed1565b840191505092915050565b60006124a882612c4e565b6124b28185612c6a565b93506124c2818560208601612de4565b80840191505092915050565b60006124db602083612c59565b91507f537472696e67733a20686578206c656e67746820696e73756666696369656e746000830152602082019050919050565b600061251b602383612c59565b91507f45524332303a207472616e7366657220746f20746865207a65726f206164647260008301527f65737300000000000000000000000000000000000000000000000000000000006020830152604082019050919050565b6000612581602283612c59565b91507f45524332303a206275726e20616d6f756e7420657863656564732062616c616e60008301527f63650000000000000000000000000000000000000000000000000000000000006020830152604082019050919050565b60006125e7602283612c59565b91507f45524332303a20617070726f766520746f20746865207a65726f20616464726560008301527f73730000000000000000000000000000000000000000000000000000000000006020830152604082019050919050565b600061264d601d83612c59565b91507f45524332303a20696e73756666696369656e7420616c6c6f77616e63650000006000830152602082019050919050565b600061268d602683612c59565b91507f45524332303a207472616e7366657220616d6f756e742065786365656473206260008301527f616c616e636500000000000000000000000000000000000000000000000000006020830152604082019050919050565b60006126f3602183612c59565b91507f45524332303a206275726e2066726f6d20746865207a65726f2061646472657360008301527f73000000000000000000000000000000000000000000000000000000000000006020830152604082019050919050565b6000612759602583612c59565b91507f45524332303a207472616e736665722066726f6d20746865207a65726f20616460008301527f64726573730000000000000000000000000000000000000000000000000000006020830152604082019050919050565b60006127bf602483612c59565b91507f45524332303a20617070726f76652066726f6d20746865207a65726f2061646460008301527f72657373000000000000000000000000000000000000000000000000000000006020830152604082019050919050565b6000612825601783612c6a565b91507f416363657373436f6e74726f6c3a206163636f756e74200000000000000000006000830152601782019050919050565b6000612865602583612c59565b91507f45524332303a2064656372656173656420616c6c6f77616e63652062656c6f7760008301527f207a65726f0000000000000000000000000000000000000000000000000000006020830152604082019050919050565b60006128cb601183612c6a565b91507f206973206d697373696e6720726f6c65200000000000000000000000000000006000830152601182019050919050565b600061290b602f83612c59565b91507f416363657373436f6e74726f6c3a2063616e206f6e6c792072656e6f756e636560008301527f20726f6c657320666f722073656c6600000000000000000000000000000000006020830152604082019050919050565b6000612971601f83612c59565b91507f45524332303a206d696e7420746f20746865207a65726f2061646472657373006000830152602082019050919050565b6129ad81612dcd565b82525050565b6129bc81612dd7565b82525050565b60006129cd82612818565b91506129d9828561249d565b91506129e4826128be565b91506129f0828461249d565b91508190509392505050565b6000602082019050612a116000830184612437565b92915050565b6000602082019050612a2c6000830184612446565b92915050565b6000602082019050612a476000830184612455565b92915050565b60006020820190508181036000830152612a678184612464565b905092915050565b60006020820190508181036000830152612a88816124ce565b9050919050565b60006020820190508181036000830152612aa88161250e565b9050919050565b60006020820190508181036000830152612ac881612574565b9050919050565b60006020820190508181036000830152612ae8816125da565b9050919050565b60006020820190508181036000830152612b0881612640565b9050919050565b60006020820190508181036000830152612b2881612680565b9050919050565b60006020820190508181036000830152612b48816126e6565b9050919050565b60006020820190508181036000830152612b688161274c565b9050919050565b60006020820190508181036000830152612b88816127b2565b9050919050565b60006020820190508181036000830152612ba881612858565b9050919050565b60006020820190508181036000830152612bc8816128fe565b9050919050565b60006020820190508181036000830152612be881612964565b9050919050565b6000602082019050612c0460008301846129a4565b92915050565b6000604082019050612c1f60008301856129a4565b612c2c60208301846129a4565b9392505050565b6000602082019050612c4860008301846129b3565b92915050565b600081519050919050565b600082825260208201905092915050565b600081905092915050565b6000612c8082612dcd565b9150612c8b83612dcd565b9250827fffffffffffffffffffffffffffffffffffffffffffffffffffffffffffffffff03821115612cc057612cbf612e73565b5b828201905092915050565b6000612cd682612dcd565b9150612ce183612dcd565b9250817fffffffffffffffffffffffffffffffffffffffffffffffffffffffffffffffff0483118215151615612d1a57612d19612e73565b5b828202905092915050565b6000612d3082612dcd565b9150612d3b83612dcd565b925082821015612d4e57612d4d612e73565b5b828203905092915050565b6000612d6482612dad565b9050919050565b60008115159050919050565b6000819050919050565b60007fffffffff0000000000000000000000000000000000000000000000000000000082169050919050565b600073ffffffffffffffffffffffffffffffffffffffff82169050919050565b6000819050919050565b600060ff82169050919050565b60005b83811015612e02578082015181840152602081019050612de7565b83811115612e11576000848401525b50505050565b6000612e2282612dcd565b91506000821415612e3657612e35612e73565b5b600182039050919050565b60006002820490506001821680612e5957607f821691505b60208210811415612e6d57612e6c612ea2565b5b50919050565b7f4e487b7100000000000000000000000000000000000000000000000000000000600052601160045260246000fd5b7f4e487b7100000000000000000000000000000000000000000000000000000000600052602260045260246000fd5b6000601f19601f8301169050919050565b612eeb81612d59565b8114612ef657600080fd5b50565b612f0281612d77565b8114612f0d57600080fd5b50565b612f1981612d81565b8114612f2457600080fd5b50565b612f3081612dcd565b8114612f3b57600080fd5b5056fea26469706673582212208873b01780334b53d2bce400864e97b6121a44541f8071263dce3ed2a338474264736f6c63430008000033",
  "linkReferences": {},
  "deployedLinkReferences": {}
}