{
  "_format": "hh-sol-artifact-1",
  "contractName": "Controller",
  "sourceName": "contracts/Controller.sol",
  "abi": [
    {
      "inputs": [
        {
          "internalType": "contract IceToken",
          "name": "iceToken_",
          "type": "address"
        },
        {
          "internalType": "contract H2OToken",
          "name": "h2oToken_",
          "type": "address"
        },
        {
          "internalType": "contract SteamToken",
          "name": "stmToken_",
          "type": "address"
        }
      ],
      "stateMutability": "nonpayable",
      "type": "constructor"
    },
    {
      "anonymous": false,
      "inputs": [
        {
          "indexed": true,
          "internalType": "address",
          "name": "account",
          "type": "address"
        },
        {
          "indexed": false,
          "internalType": "address",
          "name": "tokenFrom",
          "type": "address"
        },
        {
          "indexed": false,
          "internalType": "uint256",
          "name": "amountFrom",
          "type": "uint256"
        },
        {
          "indexed": false,
          "internalType": "address",
          "name": "tokenTo",
          "type": "address"
        },
        {
          "indexed": false,
          "internalType": "uint256",
          "name": "amountTo",
          "type": "uint256"
        }
      ],
      "name": "Swap",
      "type": "event"
    },
    {
      "inputs": [],
      "name": "annualCondensationRate",
      "outputs": [
        {
          "internalType": "uint256",
          "name": "",
          "type": "uint256"
        }
      ],
      "stateMutability": "view",
      "type": "function"
    },
    {
      "inputs": [],
      "name": "annualMeltRate",
      "outputs": [
        {
          "internalType": "uint256",
          "name": "",
          "type": "uint256"
        }
      ],
      "stateMutability": "view",
      "type": "function"
    },
    {
      "inputs": [
        {
          "internalType": "bool",
          "name": "fromICE",
          "type": "bool"
        },
        {
          "internalType": "bool",
          "name": "fromSTM",
          "type": "bool"
        }
      ],
      "name": "claimRewards",
      "outputs": [
        {
          "internalType": "uint256",
          "name": "",
          "type": "uint256"
        }
      ],
      "stateMutability": "nonpayable",
      "type": "function"
    },
    {
      "inputs": [],
      "name": "claimableH2OFromICE",
      "outputs": [
        {
          "internalType": "uint256",
          "name": "",
          "type": "uint256"
        }
      ],
      "stateMutability": "view",
      "type": "function"
    },
    {
      "inputs": [],
      "name": "claimableH2OFromSTM",
      "outputs": [
        {
          "internalType": "uint256",
          "name": "",
          "type": "uint256"
        }
      ],
      "stateMutability": "view",
      "type": "function"
    },
    {
      "inputs": [],
      "name": "condensationRate",
      "outputs": [
        {
          "internalType": "uint256",
          "name": "",
          "type": "uint256"
        }
      ],
      "stateMutability": "view",
      "type": "function"
    },
    {
      "inputs": [],
      "name": "getAccumulatedError",
      "outputs": [
        {
          "internalType": "int256",
          "name": "",
          "type": "int256"
        }
      ],
      "stateMutability": "view",
      "type": "function"
    },
    {
      "inputs": [],
      "name": "getICEPoolH2OSize",
      "outputs": [
        {
          "internalType": "uint256",
          "name": "",
          "type": "uint256"
        }
      ],
      "stateMutability": "view",
      "type": "function"
    },
    {
      "inputs": [],
      "name": "getICEPoolICESize",
      "outputs": [
        {
          "internalType": "uint256",
          "name": "",
          "type": "uint256"
        }
      ],
      "stateMutability": "view",
      "type": "function"
    },
    {
      "inputs": [],
      "name": "getICEPrice",
      "outputs": [
        {
          "internalType": "uint256",
          "name": "",
          "type": "uint256"
        }
      ],
      "stateMutability": "view",
      "type": "function"
    },
    {
      "inputs": [],
      "name": "getLastError",
      "outputs": [
        {
          "internalType": "int256",
          "name": "",
          "type": "int256"
        }
      ],
      "stateMutability": "view",
      "type": "function"
    },
    {
      "inputs": [],
      "name": "getSTMPoolH2OSize",
      "outputs": [
        {
          "internalType": "uint256",
          "name": "",
          "type": "uint256"
        }
      ],
      "stateMutability": "view",
      "type": "function"
    },
    {
      "inputs": [],
      "name": "getSTMPoolSTMSize",
      "outputs": [
        {
          "internalType": "uint256",
          "name": "",
          "type": "uint256"
        }
      ],
      "stateMutability": "view",
      "type": "function"
    },
    {
      "inputs": [],
      "name": "getSTMPrice",
      "outputs": [
        {
          "internalType": "uint256",
          "name": "",
          "type": "uint256"
        }
      ],
      "stateMutability": "view",
      "type": "function"
    },
    {
      "inputs": [],
      "name": "getTargetICEPrice",
      "outputs": [
        {
          "internalType": "uint256",
          "name": "",
          "type": "uint256"
        }
      ],
      "stateMutability": "view",
      "type": "function"
    },
    {
      "inputs": [],
      "name": "initTokenRoles",
      "outputs": [],
      "stateMutability": "nonpayable",
      "type": "function"
    },
    {
      "inputs": [],
      "name": "meltRate",
      "outputs": [
        {
          "internalType": "uint256",
          "name": "",
          "type": "uint256"
        }
      ],
      "stateMutability": "view",
      "type": "function"
    },
    {
      "inputs": [
        {
          "internalType": "uint256",
          "name": "dH2OAmount",
          "type": "uint256"
        }
      ],
      "name": "previewSwapH2OForICE",
      "outputs": [
        {
          "internalType": "uint256",
          "name": "",
          "type": "uint256"
        }
      ],
      "stateMutability": "view",
      "type": "function"
    },
    {
      "inputs": [
        {
          "internalType": "uint256",
          "name": "dH2OAmount",
          "type": "uint256"
        }
      ],
      "name": "previewSwapH2OForSTM",
      "outputs": [
        {
          "internalType": "uint256",
          "name": "",
          "type": "uint256"
        }
      ],
      "stateMutability": "view",
      "type": "function"
    },
    {
      "inputs": [
        {
          "internalType": "uint256",
          "name": "dICEAmount",
          "type": "uint256"
        }
      ],
      "name": "previewSwapICEForH2O",
      "outputs": [
        {
          "internalType": "uint256",
          "name": "",
          "type": "uint256"
        }
      ],
      "stateMutability": "view",
      "type": "function"
    },
    {
      "inputs": [
        {
          "internalType": "uint256",
          "name": "dSTMAmount",
          "type": "uint256"
        }
      ],
      "name": "previewSwapSTMForH2O",
      "outputs": [
        {
          "internalType": "uint256",
          "name": "",
          "type": "uint256"
        }
      ],
      "stateMutability": "view",
      "type": "function"
    },
    {
      "inputs": [
        {
          "internalType": "uint256",
          "name": "dH2OAmount",
          "type": "uint256"
        }
      ],
      "name": "swapH2OForICE",
      "outputs": [
        {
          "internalType": "uint256",
          "name": "",
          "type": "uint256"
        }
      ],
      "stateMutability": "nonpayable",
      "type": "function"
    },
    {
      "inputs": [
        {
          "internalType": "uint256",
          "name": "dH2OAmount",
          "type": "uint256"
        }
      ],
      "name": "swapH2OForSTM",
      "outputs": [
        {
          "internalType": "uint256",
          "name": "",
          "type": "uint256"
        }
      ],
      "stateMutability": "nonpayable",
      "type": "function"
    },
    {
      "inputs": [
        {
          "internalType": "uint256",
          "name": "dICEAmount",
          "type": "uint256"
        }
      ],
      "name": "swapICEForH2O",
      "outputs": [
        {
          "internalType": "uint256",
          "name": "",
          "type": "uint256"
        }
      ],
      "stateMutability": "nonpayable",
      "type": "function"
    },
    {
      "inputs": [
        {
          "internalType": "uint256",
          "name": "dSTMAmount",
          "type": "uint256"
        }
      ],
      "name": "swapSTMForH2O",
      "outputs": [
        {
          "internalType": "uint256",
          "name": "",
          "type": "uint256"
        }
      ],
      "stateMutability": "nonpayable",
      "type": "function"
    }
  ],
  "bytecode": "0x60806040526301e13380670de0b6b3a76400006200001e919062000872565b6003556301e1338067016345785d8a00006200003b919062000872565b6004553480156200004b57600080fd5b5060405162004f7938038062004f798339818101604052810190620000719190620006b5565b828282828282826000806101000a81548173ffffffffffffffffffffffffffffffffffffffff021916908373ffffffffffffffffffffffffffffffffffffffff16021790555081600160006101000a81548173ffffffffffffffffffffffffffffffffffffffff021916908373ffffffffffffffffffffffffffffffffffffffff16021790555080600260006101000a81548173ffffffffffffffffffffffffffffffffffffffff021916908373ffffffffffffffffffffffffffffffffffffffff16021790555050505050505042600781905550600160009054906101000a900473ffffffffffffffffffffffffffffffffffffffff1660008054906101000a900473ffffffffffffffffffffffffffffffffffffffff1669d3c21bcecceda1000000620001c268015af1d78b58c4000069d3c21bcecceda10000006200040e60201b62001bbf1790919060201c565b604051620001d0906200064b565b620001df94939291906200077b565b604051809103906000f080158015620001fc573d6000803e3d6000fd5b50600860006101000a81548173ffffffffffffffffffffffffffffffffffffffff021916908373ffffffffffffffffffffffffffffffffffffffff160217905550600160009054906101000a900473ffffffffffffffffffffffffffffffffffffffff16600260009054906101000a900473ffffffffffffffffffffffffffffffffffffffff1669d3c21bcecceda1000000620002ba674563918244f4000069d3c21bcecceda10000006200040e60201b62001bbf1790919060201c565b604051620002c8906200064b565b620002d79493929190620007c8565b604051809103906000f080158015620002f4573d6000803e3d6000fd5b50600960006101000a81548173ffffffffffffffffffffffffffffffffffffffff021916908373ffffffffffffffffffffffffffffffffffffffff160217905550600260009054906101000a900473ffffffffffffffffffffffffffffffffffffffff1673ffffffffffffffffffffffffffffffffffffffff166318160ddd6040518163ffffffff1660e01b815260040160206040518083038186803b1580156200039e57600080fd5b505afa158015620003b3573d6000803e3d6000fd5b505050506040513d601f19601f82011682018060405250810190620003d991906200070b565b600a81905550620003ef6200043b60201b60201c565b600b8190555068015af1d78b58c40000600c8190555050505062000ac3565b60008183670de0b6b3a7640000620004279190620008aa565b62000433919062000872565b905092915050565b600080600960009054906101000a900473ffffffffffffffffffffffffffffffffffffffff1673ffffffffffffffffffffffffffffffffffffffff1663e22dde2f6040518163ffffffff1660e01b815260040160206040518083038186803b158015620004a757600080fd5b505afa158015620004bc573d6000803e3d6000fd5b505050506040513d601f19601f82011682018060405250810190620004e291906200070b565b600860009054906101000a900473ffffffffffffffffffffffffffffffffffffffff1673ffffffffffffffffffffffffffffffffffffffff1663e22dde2f6040518163ffffffff1660e01b815260040160206040518083038186803b1580156200054b57600080fd5b505afa15801562000560573d6000803e3d6000fd5b505050506040513d601f19601f820116820180604052508101906200058691906200070b565b600160009054906101000a900473ffffffffffffffffffffffffffffffffffffffff1673ffffffffffffffffffffffffffffffffffffffff166318160ddd6040518163ffffffff1660e01b815260040160206040518083038186803b158015620005ef57600080fd5b505afa15801562000604573d6000803e3d6000fd5b505050506040513d601f19601f820116820180604052508101906200062a91906200070b565b62000636919062000815565b62000642919062000815565b90508091505090565b611928806200365183390190565b6000815190506200066a8162000a5b565b92915050565b600081519050620006818162000a75565b92915050565b600081519050620006988162000a8f565b92915050565b600081519050620006af8162000aa9565b92915050565b600080600060608486031215620006cb57600080fd5b6000620006db8682870162000670565b9350506020620006ee8682870162000659565b9250506040620007018682870162000687565b9150509250925092565b6000602082840312156200071e57600080fd5b60006200072e848285016200069e565b91505092915050565b620007428162000985565b82525050565b6200075381620009ad565b82525050565b6200076481620009d5565b82525050565b62000775816200097b565b82525050565b600060808201905062000792600083018762000737565b620007a1602083018662000748565b620007b060408301856200076a565b620007bf60608301846200076a565b95945050505050565b6000608082019050620007df600083018762000737565b620007ee602083018662000759565b620007fd60408301856200076a565b6200080c60608301846200076a565b95945050505050565b600062000822826200097b565b91506200082f836200097b565b9250827fffffffffffffffffffffffffffffffffffffffffffffffffffffffffffffffff03821115620008675762000866620009fd565b5b828201905092915050565b60006200087f826200097b565b91506200088c836200097b565b9250826200089f576200089e62000a2c565b5b828204905092915050565b6000620008b7826200097b565b9150620008c4836200097b565b9250817fffffffffffffffffffffffffffffffffffffffffffffffffffffffffffffffff04831182151516156200090057620008ff620009fd565b5b828202905092915050565b600062000918826200095b565b9050919050565b60006200092c826200090b565b9050919050565b600062000940826200090b565b9050919050565b600062000954826200090b565b9050919050565b600073ffffffffffffffffffffffffffffffffffffffff82169050919050565b6000819050919050565b6000620009928262000999565b9050919050565b6000620009a6826200095b565b9050919050565b6000620009ba82620009c1565b9050919050565b6000620009ce826200095b565b9050919050565b6000620009e282620009e9565b9050919050565b6000620009f6826200095b565b9050919050565b7f4e487b7100000000000000000000000000000000000000000000000000000000600052601160045260246000fd5b7f4e487b7100000000000000000000000000000000000000000000000000000000600052601260045260246000fd5b62000a66816200091f565b811462000a7257600080fd5b50565b62000a808162000933565b811462000a8c57600080fd5b50565b62000a9a8162000947565b811462000aa657600080fd5b50565b62000ab4816200097b565b811462000ac057600080fd5b50565b612b7e8062000ad36000396000f3fe608060405234801561001057600080fd5b50600436106101735760003560e01c806370247aeb116100de578063ac88490211610097578063b36c26ea11610071578063b36c26ea1461046a578063c018e6fa14610488578063cb8c836e146104b8578063ff7e0766146104d657610173565b8063ac88490214610412578063af0b9afd14610430578063b09fc4bb1461046057610173565b806370247aeb1461033a5780637068a20c1461035857806386f9f7ec146103885780638f67d139146103a65780639477ee10146103d6578063aafe2079146103f457610173565b80632f4ec87a116101305780632f4ec87a1461023e5780633242bdd21461026e578063325347df1461028c57806346ebc3bd146102bc57806358004edf146102da5780635b2807f41461030a57610173565b806304bc3656146101785780631037d0161461019657806314f82d2e146101c657806329dbb069146101e45780632c28344a146102025780632e716e6714610220575b600080fd5b6101806104f4565b60405161018d9190612636565b60405180910390f35b6101b060048036038101906101ab9190612455565b61050d565b6040516101bd9190612636565b60405180910390f35b6101ce610669565b6040516101db9190612636565b60405180910390f35b6101ec61066f565b6040516101f99190612636565b60405180910390f35b61020a610679565b6040516102179190612636565b60405180910390f35b610228610692565b6040516102359190612636565b60405180910390f35b61025860048036038101906102539190612455565b610739565b6040516102659190612636565b60405180910390f35b6102766107ed565b6040516102839190612636565b60405180910390f35b6102a660048036038101906102a19190612455565b610894565b6040516102b39190612636565b60405180910390f35b6102c4610948565b6040516102d19190612636565b60405180910390f35b6102f460048036038101906102ef9190612455565b6109ef565b6040516103019190612636565b60405180910390f35b610324600480360381019061031f9190612455565b610aa3565b6040516103319190612636565b60405180910390f35b610342610bf8565b60405161034f9190612636565b60405180910390f35b610372600480360381019061036d9190612455565b610c9f565b60405161037f9190612636565b60405180910390f35b610390610dfb565b60405161039d9190612636565b60405180910390f35b6103c060048036038101906103bb9190612455565b610ea2565b6040516103cd9190612636565b60405180910390f35b6103de610f56565b6040516103eb9190612636565b60405180910390f35b6103fc61101a565b60405161040991906125fb565b60405180910390f35b61041a611024565b6040516104279190612636565b60405180910390f35b61044a60048036038101906104459190612455565b6110cb565b6040516104579190612636565b60405180910390f35b610468611220565b005b610472611854565b60405161047f91906125fb565b60405180910390f35b6104a2600480360381019061049d91906123f0565b61185e565b6040516104af9190612636565b60405180910390f35b6104c0611af3565b6040516104cd9190612636565b60405180910390f35b6104de611af9565b6040516104eb9190612636565b60405180910390f35b60006301e133806004546105089190612927565b905090565b6000610517611be8565b6000600860009054906101000a900473ffffffffffffffffffffffffffffffffffffffff1673ffffffffffffffffffffffffffffffffffffffff16637e1ea6d684336040518363ffffffff1660e01b8152600401610576929190612651565b602060405180830381600087803b15801561059057600080fd5b505af11580156105a4573d6000803e3d6000fd5b505050506040513d601f19601f820116820180604052508101906105c8919061247e565b90503373ffffffffffffffffffffffffffffffffffffffff167f5380cf97d8f645d3c4896da60c053458dca03a3a31cec642ac80e1ddf0d8d02a60008054906101000a900473ffffffffffffffffffffffffffffffffffffffff1685600160009054906101000a900473ffffffffffffffffffffffffffffffffffffffff1685604051610658949392919061258d565b60405180910390a280915050919050565b60035481565b6000600c54905090565b60006301e1338060035461068d9190612927565b905090565b6000600960009054906101000a900473ffffffffffffffffffffffffffffffffffffffff1673ffffffffffffffffffffffffffffffffffffffff166358e60fca6040518163ffffffff1660e01b815260040160206040518083038186803b1580156106fc57600080fd5b505afa158015610710573d6000803e3d6000fd5b505050506040513d601f19601f82011682018060405250810190610734919061247e565b905090565b6000600860009054906101000a900473ffffffffffffffffffffffffffffffffffffffff1673ffffffffffffffffffffffffffffffffffffffff1663cad228e4836040518263ffffffff1660e01b81526004016107969190612636565b60206040518083038186803b1580156107ae57600080fd5b505afa1580156107c2573d6000803e3d6000fd5b505050506040513d601f19601f820116820180604052508101906107e6919061247e565b9050919050565b6000600860009054906101000a900473ffffffffffffffffffffffffffffffffffffffff1673ffffffffffffffffffffffffffffffffffffffff1663e22dde2f6040518163ffffffff1660e01b815260040160206040518083038186803b15801561085757600080fd5b505afa15801561086b573d6000803e3d6000fd5b505050506040513d601f19601f8201168201806040525081019061088f919061247e565b905090565b6000600860009054906101000a900473ffffffffffffffffffffffffffffffffffffffff1673ffffffffffffffffffffffffffffffffffffffff1663d9c5bb29836040518263ffffffff1660e01b81526004016108f19190612636565b60206040518083038186803b15801561090957600080fd5b505afa15801561091d573d6000803e3d6000fd5b505050506040513d601f19601f82011682018060405250810190610941919061247e565b9050919050565b6000600860009054906101000a900473ffffffffffffffffffffffffffffffffffffffff1673ffffffffffffffffffffffffffffffffffffffff166358e60fca6040518163ffffffff1660e01b815260040160206040518083038186803b1580156109b257600080fd5b505afa1580156109c6573d6000803e3d6000fd5b505050506040513d601f19601f820116820180604052508101906109ea919061247e565b905090565b6000600960009054906101000a900473ffffffffffffffffffffffffffffffffffffffff1673ffffffffffffffffffffffffffffffffffffffff1663d9c5bb29836040518263ffffffff1660e01b8152600401610a4c9190612636565b60206040518083038186803b158015610a6457600080fd5b505afa158015610a78573d6000803e3d6000fd5b505050506040513d601f19601f82011682018060405250810190610a9c919061247e565b9050919050565b600080600960009054906101000a900473ffffffffffffffffffffffffffffffffffffffff1673ffffffffffffffffffffffffffffffffffffffff1663cad0596e84336040518363ffffffff1660e01b8152600401610b03929190612651565b602060405180830381600087803b158015610b1d57600080fd5b505af1158015610b31573d6000803e3d6000fd5b505050506040513d601f19601f82011682018060405250810190610b55919061247e565b90503373ffffffffffffffffffffffffffffffffffffffff167f5380cf97d8f645d3c4896da60c053458dca03a3a31cec642ac80e1ddf0d8d02a600160009054906101000a900473ffffffffffffffffffffffffffffffffffffffff1685600260009054906101000a900473ffffffffffffffffffffffffffffffffffffffff1685604051610be7949392919061258d565b60405180910390a280915050919050565b6000600960009054906101000a900473ffffffffffffffffffffffffffffffffffffffff1673ffffffffffffffffffffffffffffffffffffffff1663a6841c8c6040518163ffffffff1660e01b815260040160206040518083038186803b158015610c6257600080fd5b505afa158015610c76573d6000803e3d6000fd5b505050506040513d601f19601f82011682018060405250810190610c9a919061247e565b905090565b6000610ca9611be8565b6000600860009054906101000a900473ffffffffffffffffffffffffffffffffffffffff1673ffffffffffffffffffffffffffffffffffffffff1663cad0596e84336040518363ffffffff1660e01b8152600401610d08929190612651565b602060405180830381600087803b158015610d2257600080fd5b505af1158015610d36573d6000803e3d6000fd5b505050506040513d601f19601f82011682018060405250810190610d5a919061247e565b90503373ffffffffffffffffffffffffffffffffffffffff167f5380cf97d8f645d3c4896da60c053458dca03a3a31cec642ac80e1ddf0d8d02a600160009054906101000a900473ffffffffffffffffffffffffffffffffffffffff168560008054906101000a900473ffffffffffffffffffffffffffffffffffffffff1685604051610dea949392919061258d565b60405180910390a280915050919050565b6000600960009054906101000a900473ffffffffffffffffffffffffffffffffffffffff1673ffffffffffffffffffffffffffffffffffffffff1663e22dde2f6040518163ffffffff1660e01b815260040160206040518083038186803b158015610e6557600080fd5b505afa158015610e79573d6000803e3d6000fd5b505050506040513d601f19601f82011682018060405250810190610e9d919061247e565b905090565b6000600960009054906101000a900473ffffffffffffffffffffffffffffffffffffffff1673ffffffffffffffffffffffffffffffffffffffff1663cad228e4836040518263ffffffff1660e01b8152600401610eff9190612636565b60206040518083038186803b158015610f1757600080fd5b505afa158015610f2b573d6000803e3d6000fd5b505050506040513d601f19601f82011682018060405250810190610f4f919061247e565b9050919050565b600061101560035460008054906101000a900473ffffffffffffffffffffffffffffffffffffffff1673ffffffffffffffffffffffffffffffffffffffff1663e9503425336040518263ffffffff1660e01b8152600401610fb79190612549565b60206040518083038186803b158015610fcf57600080fd5b505afa158015610fe3573d6000803e3d6000fd5b505050506040513d601f19601f82011682018060405250810190611007919061247e565b611c5890919063ffffffff16565b905090565b6000600554905090565b6000600860009054906101000a900473ffffffffffffffffffffffffffffffffffffffff1673ffffffffffffffffffffffffffffffffffffffff1663a6841c8c6040518163ffffffff1660e01b815260040160206040518083038186803b15801561108e57600080fd5b505afa1580156110a2573d6000803e3d6000fd5b505050506040513d601f19601f820116820180604052508101906110c6919061247e565b905090565b600080600960009054906101000a900473ffffffffffffffffffffffffffffffffffffffff1673ffffffffffffffffffffffffffffffffffffffff16637e1ea6d684336040518363ffffffff1660e01b815260040161112b929190612651565b602060405180830381600087803b15801561114557600080fd5b505af1158015611159573d6000803e3d6000fd5b505050506040513d601f19601f8201168201806040525081019061117d919061247e565b90503373ffffffffffffffffffffffffffffffffffffffff167f5380cf97d8f645d3c4896da60c053458dca03a3a31cec642ac80e1ddf0d8d02a600260009054906101000a900473ffffffffffffffffffffffffffffffffffffffff1685600160009054906101000a900473ffffffffffffffffffffffffffffffffffffffff168560405161120f949392919061258d565b60405180910390a280915050919050565b6000600860009054906101000a900473ffffffffffffffffffffffffffffffffffffffff1690506000600960009054906101000a900473ffffffffffffffffffffffffffffffffffffffff16905060008054906101000a900473ffffffffffffffffffffffffffffffffffffffff1673ffffffffffffffffffffffffffffffffffffffff16632f2ff15d60008054906101000a900473ffffffffffffffffffffffffffffffffffffffff1673ffffffffffffffffffffffffffffffffffffffff166372c328606040518163ffffffff1660e01b815260040160206040518083038186803b15801561131057600080fd5b505afa158015611324573d6000803e3d6000fd5b505050506040513d601f19601f82011682018060405250810190611348919061242c565b846040518363ffffffff1660e01b81526004016113669291906125d2565b600060405180830381600087803b15801561138057600080fd5b505af1158015611394573d6000803e3d6000fd5b50505050600160009054906101000a900473ffffffffffffffffffffffffffffffffffffffff1673ffffffffffffffffffffffffffffffffffffffff16632f2ff15d600160009054906101000a900473ffffffffffffffffffffffffffffffffffffffff1673ffffffffffffffffffffffffffffffffffffffff166372c328606040518163ffffffff1660e01b815260040160206040518083038186803b15801561143e57600080fd5b505afa158015611452573d6000803e3d6000fd5b505050506040513d601f19601f82011682018060405250810190611476919061242c565b846040518363ffffffff1660e01b81526004016114949291906125d2565b600060405180830381600087803b1580156114ae57600080fd5b505af11580156114c2573d6000803e3d6000fd5b50505050600160009054906101000a900473ffffffffffffffffffffffffffffffffffffffff1673ffffffffffffffffffffffffffffffffffffffff16632f2ff15d600160009054906101000a900473ffffffffffffffffffffffffffffffffffffffff1673ffffffffffffffffffffffffffffffffffffffff166372c328606040518163ffffffff1660e01b815260040160206040518083038186803b15801561156c57600080fd5b505afa158015611580573d6000803e3d6000fd5b505050506040513d601f19601f820116820180604052508101906115a4919061242c565b836040518363ffffffff1660e01b81526004016115c29291906125d2565b600060405180830381600087803b1580156115dc57600080fd5b505af11580156115f0573d6000803e3d6000fd5b50505050600260009054906101000a900473ffffffffffffffffffffffffffffffffffffffff1673ffffffffffffffffffffffffffffffffffffffff16632f2ff15d600260009054906101000a900473ffffffffffffffffffffffffffffffffffffffff1673ffffffffffffffffffffffffffffffffffffffff166372c328606040518163ffffffff1660e01b815260040160206040518083038186803b15801561169a57600080fd5b505afa1580156116ae573d6000803e3d6000fd5b505050506040513d601f19601f820116820180604052508101906116d2919061242c565b836040518363ffffffff1660e01b81526004016116f09291906125d2565b600060405180830381600087803b15801561170a57600080fd5b505af115801561171e573d6000803e3d6000fd5b50505050600160009054906101000a900473ffffffffffffffffffffffffffffffffffffffff1673ffffffffffffffffffffffffffffffffffffffff16632f2ff15d600160009054906101000a900473ffffffffffffffffffffffffffffffffffffffff1673ffffffffffffffffffffffffffffffffffffffff166372c328606040518163ffffffff1660e01b815260040160206040518083038186803b1580156117c857600080fd5b505afa1580156117dc573d6000803e3d6000fd5b505050506040513d601f19601f82011682018060405250810190611800919061242c565b306040518363ffffffff1660e01b815260040161181e9291906125d2565b600060405180830381600087803b15801561183857600080fd5b505af115801561184c573d6000803e3d6000fd5b505050505050565b6000600654905090565b600082806118695750815b6118a8576040517f08c379a000000000000000000000000000000000000000000000000000000000815260040161189f90612616565b60405180910390fd5b6000831561197d5761196f60035460008054906101000a900473ffffffffffffffffffffffffffffffffffffffff1673ffffffffffffffffffffffffffffffffffffffff1663d279c191336040518263ffffffff1660e01b815260040161190f9190612549565b602060405180830381600087803b15801561192957600080fd5b505af115801561193d573d6000803e3d6000fd5b505050506040513d601f19601f82011682018060405250810190611961919061247e565b611c5890919063ffffffff16565b8161197a919061271f565b90505b8215611a5257611a44600454600260009054906101000a900473ffffffffffffffffffffffffffffffffffffffff1673ffffffffffffffffffffffffffffffffffffffff1663d279c191336040518263ffffffff1660e01b81526004016119e49190612549565b602060405180830381600087803b1580156119fe57600080fd5b505af1158015611a12573d6000803e3d6000fd5b505050506040513d601f19601f82011682018060405250810190611a36919061247e565b611c5890919063ffffffff16565b81611a4f919061271f565b90505b600160009054906101000a900473ffffffffffffffffffffffffffffffffffffffff1673ffffffffffffffffffffffffffffffffffffffff166340c10f1933836040518363ffffffff1660e01b8152600401611aaf929190612564565b600060405180830381600087803b158015611ac957600080fd5b505af1158015611add573d6000803e3d6000fd5b50505050611ae9611c81565b8091505092915050565b60045481565b6000611bba600454600260009054906101000a900473ffffffffffffffffffffffffffffffffffffffff1673ffffffffffffffffffffffffffffffffffffffff1663e9503425336040518263ffffffff1660e01b8152600401611b5c9190612549565b60206040518083038186803b158015611b7457600080fd5b505afa158015611b88573d6000803e3d6000fd5b505050506040513d601f19601f82011682018060405250810190611bac919061247e565b611c5890919063ffffffff16565b905090565b60008183670de0b6b3a7640000611bd69190612927565b611be091906127df565b905092915050565b426007541415611bf757611c56565b600060075442611c079190612a15565b9050426007819055506000611c1a611c8b565b905060008282611c2a9190612810565b600654611c37919061268b565b90508160058190555080600681905550611c52828285611d3f565b5050505b565b6000670de0b6b3a76400008284611c6f9190612927565b611c7991906127df565b905092915050565b611c89611d62565b565b6000600c54600860009054906101000a900473ffffffffffffffffffffffffffffffffffffffff1673ffffffffffffffffffffffffffffffffffffffff166358e60fca6040518163ffffffff1660e01b815260040160206040518083038186803b158015611cf857600080fd5b505afa158015611d0c573d6000803e3d6000fd5b505050506040513d601f19601f82011682018060405250810190611d30919061247e565b611d3a9190612981565b905090565b611d498382611eac565b611d538282611fc5565b611d5d8382612078565b505050565b6000611d6c6120a9565b90506000611d85600b5483611bbf90919063ffffffff16565b905081600b81905550600860009054906101000a900473ffffffffffffffffffffffffffffffffffffffff1673ffffffffffffffffffffffffffffffffffffffff1663775cd042826040518263ffffffff1660e01b8152600401611de99190612636565b600060405180830381600087803b158015611e0357600080fd5b505af1158015611e17573d6000803e3d6000fd5b50505050600960009054906101000a900473ffffffffffffffffffffffffffffffffffffffff1673ffffffffffffffffffffffffffffffffffffffff1663775cd042826040518263ffffffff1660e01b8152600401611e769190612636565b600060405180830381600087803b158015611e9057600080fd5b505af1158015611ea4573d6000803e3d6000fd5b505050505050565b6000611eb6610692565b90506000611ec2610948565b90506000611ee1670de0b6b3a7640000866122a990919063ffffffff16565b90506000611ef883856122d290919063ffffffff16565b9050611f0d81836122a990919063ffffffff16565b9150611f1d8286620d2f006122fb565b915060008285611f2d919061268b565b9050600960009054906101000a900473ffffffffffffffffffffffffffffffffffffffff1673ffffffffffffffffffffffffffffffffffffffff1663083e5302826040518263ffffffff1660e01b8152600401611f8a9190612636565b600060405180830381600087803b158015611fa457600080fd5b505af1158015611fb8573d6000803e3d6000fd5b5050505050505050505050565b60006301e1338067016345785d8a0000611fdf91906127df565b905060006004549050600061200f620151806301312d006120009190612775565b866122a990919063ffffffff16565b90506000818461201f919061268b565b90506000838261202f9190612981565b905061203f8187620151806122fb565b90506000818561204f919061268b565b905061206560008261234790919063ffffffff16565b9050806004819055505050505050505050565b6000600c549050600061208f84846283d6006122fb565b9050808261209d919061268b565b600c8190555050505050565b600080600960009054906101000a900473ffffffffffffffffffffffffffffffffffffffff1673ffffffffffffffffffffffffffffffffffffffff1663e22dde2f6040518163ffffffff1660e01b815260040160206040518083038186803b15801561211457600080fd5b505afa158015612128573d6000803e3d6000fd5b505050506040513d601f19601f8201168201806040525081019061214c919061247e565b600860009054906101000a900473ffffffffffffffffffffffffffffffffffffffff1673ffffffffffffffffffffffffffffffffffffffff1663e22dde2f6040518163ffffffff1660e01b815260040160206040518083038186803b1580156121b457600080fd5b505afa1580156121c8573d6000803e3d6000fd5b505050506040513d601f19601f820116820180604052508101906121ec919061247e565b600160009054906101000a900473ffffffffffffffffffffffffffffffffffffffff1673ffffffffffffffffffffffffffffffffffffffff166318160ddd6040518163ffffffff1660e01b815260040160206040518083038186803b15801561225457600080fd5b505afa158015612268573d6000803e3d6000fd5b505050506040513d601f19601f8201168201806040525081019061228c919061247e565b612296919061271f565b6122a0919061271f565b90508091505090565b6000670de0b6b3a764000082846122c09190612810565b6122ca9190612775565b905092915050565b60008183670de0b6b3a76400006122e99190612810565b6122f39190612775565b905092915050565b6000612310828461236390919063ffffffff16565b925060008261231e8561237f565b61232891906127df565b905061233d85826122a990919063ffffffff16565b9150509392505050565b6000818313156123595782905061235d565b8190505b92915050565b60008183111561237557819050612379565b8290505b92915050565b6000670de0b6b3a7640000826123959190612927565b9050919050565b6000813590506123ab81612b03565b92915050565b6000815190506123c081612b1a565b92915050565b6000813590506123d581612b31565b92915050565b6000815190506123ea81612b31565b92915050565b6000806040838503121561240357600080fd5b60006124118582860161239c565b92505060206124228582860161239c565b9150509250929050565b60006020828403121561243e57600080fd5b600061244c848285016123b1565b91505092915050565b60006020828403121561246757600080fd5b6000612475848285016123c6565b91505092915050565b60006020828403121561249057600080fd5b600061249e848285016123db565b91505092915050565b6124b081612a49565b82525050565b6124bf81612a67565b82525050565b6124ce81612a71565b82525050565b60006124e160248361267a565b91507f436c61696d2068617320746f2062652066726f6d2049434520616e642f6f722060008301527f53544d2e000000000000000000000000000000000000000000000000000000006020830152604082019050919050565b61254381612a9b565b82525050565b600060208201905061255e60008301846124a7565b92915050565b600060408201905061257960008301856124a7565b612586602083018461253a565b9392505050565b60006080820190506125a260008301876124a7565b6125af602083018661253a565b6125bc60408301856124a7565b6125c9606083018461253a565b95945050505050565b60006040820190506125e760008301856124b6565b6125f460208301846124a7565b9392505050565b600060208201905061261060008301846124c5565b92915050565b6000602082019050818103600083015261262f816124d4565b9050919050565b600060208201905061264b600083018461253a565b92915050565b6000604082019050612666600083018561253a565b61267360208301846124a7565b9392505050565b600082825260208201905092915050565b600061269682612a71565b91506126a183612a71565b9250817f7fffffffffffffffffffffffffffffffffffffffffffffffffffffffffffffff038313600083121516156126dc576126db612aa5565b5b817f800000000000000000000000000000000000000000000000000000000000000003831260008312161561271457612713612aa5565b5b828201905092915050565b600061272a82612a9b565b915061273583612a9b565b9250827fffffffffffffffffffffffffffffffffffffffffffffffffffffffffffffffff0382111561276a57612769612aa5565b5b828201905092915050565b600061278082612a71565b915061278b83612a71565b92508261279b5761279a612ad4565b5b600160000383147f8000000000000000000000000000000000000000000000000000000000000000831416156127d4576127d3612aa5565b5b828205905092915050565b60006127ea82612a9b565b91506127f583612a9b565b92508261280557612804612ad4565b5b828204905092915050565b600061281b82612a71565b915061282683612a71565b9250827f7fffffffffffffffffffffffffffffffffffffffffffffffffffffffffffffff048211600084136000841316161561286557612864612aa5565b5b817f800000000000000000000000000000000000000000000000000000000000000005831260008412600084131616156128a2576128a1612aa5565b5b827f800000000000000000000000000000000000000000000000000000000000000005821260008413600084121616156128df576128de612aa5565b5b827f7fffffffffffffffffffffffffffffffffffffffffffffffffffffffffffffff058212600084126000841216161561291c5761291b612aa5565b5b828202905092915050565b600061293282612a9b565b915061293d83612a9b565b9250817fffffffffffffffffffffffffffffffffffffffffffffffffffffffffffffffff048311821515161561297657612975612aa5565b5b828202905092915050565b600061298c82612a71565b915061299783612a71565b9250827f8000000000000000000000000000000000000000000000000000000000000000018212600084121516156129d2576129d1612aa5565b5b827f7fffffffffffffffffffffffffffffffffffffffffffffffffffffffffffffff018213600084121615612a0a57612a09612aa5565b5b828203905092915050565b6000612a2082612a9b565b9150612a2b83612a9b565b925082821015612a3e57612a3d612aa5565b5b828203905092915050565b6000612a5482612a7b565b9050919050565b60008115159050919050565b6000819050919050565b6000819050919050565b600073ffffffffffffffffffffffffffffffffffffffff82169050919050565b6000819050919050565b7f4e487b7100000000000000000000000000000000000000000000000000000000600052601160045260246000fd5b7f4e487b7100000000000000000000000000000000000000000000000000000000600052601260045260246000fd5b612b0c81612a5b565b8114612b1757600080fd5b50565b612b2381612a67565b8114612b2e57600080fd5b50565b612b3a81612a9b565b8114612b4557600080fd5b5056fea2646970667358221220c58f02cdd9be45bd2932427a4ea1469d611d85c648b607e1b8316e127baf62ab64736f6c6343000800003360806040523480156200001157600080fd5b5060405162001928380380620019288339818101604052810190620000379190620001f5565b60016000819055506200005f62000053620000f960201b60201c565b6200010160201b60201c565b83600260006101000a81548173ffffffffffffffffffffffffffffffffffffffff021916908373ffffffffffffffffffffffffffffffffffffffff16021790555082600360006101000a81548173ffffffffffffffffffffffffffffffffffffffff021916908373ffffffffffffffffffffffffffffffffffffffff160217905550816004819055508060058190555050505050620002e7565b600033905090565b6000600160009054906101000a900473ffffffffffffffffffffffffffffffffffffffff16905081600160006101000a81548173ffffffffffffffffffffffffffffffffffffffff021916908373ffffffffffffffffffffffffffffffffffffffff1602179055508173ffffffffffffffffffffffffffffffffffffffff168173ffffffffffffffffffffffffffffffffffffffff167f8be0079c531659141344cd1fd0a4f28419497f9722a3daafe3b4186f6b6457e060405160405180910390a35050565b600081519050620001d881620002b3565b92915050565b600081519050620001ef81620002cd565b92915050565b600080600080608085870312156200020c57600080fd5b60006200021c87828801620001c7565b94505060206200022f87828801620001c7565b93505060406200024287828801620001de565b92505060606200025587828801620001de565b91505092959194509250565b60006200026e8262000289565b9050919050565b6000620002828262000261565b9050919050565b600073ffffffffffffffffffffffffffffffffffffffff82169050919050565b6000819050919050565b620002be8162000275565b8114620002ca57600080fd5b50565b620002d881620002a9565b8114620002e457600080fd5b50565b61163180620002f76000396000f3fe608060405234801561001057600080fd5b50600436106101005760003560e01c80639f41b18411610097578063cad228e411610066578063cad228e414610277578063d9c5bb29146102a7578063e22dde2f146102d7578063f2fde38b146102f557610100565b80639f41b184146101ef578063a6841c8c1461020b578063b635356714610229578063cad0596e1461024757610100565b8063715018a6116100d3578063715018a61461017b578063775cd042146101855780637e1ea6d6146101a15780638da5cb5b146101d157610100565b8063083e5302146101055780630fc63d101461012157806358e60fca1461013f5780635f64b55b1461015d575b600080fd5b61011f600480360381019061011a9190610f56565b610311565b005b6101296103ab565b60405161013691906112d3565b60405180910390f35b6101476103d1565b60405161015491906113ce565b60405180910390f35b6101656103ef565b60405161017291906112d3565b60405180910390f35b610183610415565b005b61019f600480360381019061019a9190610f56565b61049d565b005b6101bb60048036038101906101b69190610fa8565b610552565b6040516101c891906113ce565b60405180910390f35b6101d96107f7565b6040516101e6919061128f565b60405180910390f35b61020960048036038101906102049190610f56565b610821565b005b6102136108bb565b60405161022091906113ce565b60405180910390f35b6102316108c1565b60405161023e91906113ce565b60405180910390f35b610261600480360381019061025c9190610fa8565b6108df565b60405161026e91906113ce565b60405180910390f35b610291600480360381019061028c9190610f56565b610b84565b60405161029e91906113ce565b60405180910390f35b6102c160048036038101906102bc9190610f56565b610b9c565b6040516102ce91906113ce565b60405180910390f35b6102df610bb4565b6040516102ec91906113ce565b60405180910390f35b61030f600480360381019061030a9190610f2d565b610bba565b005b610319610cb2565b73ffffffffffffffffffffffffffffffffffffffff166103376107f7565b73ffffffffffffffffffffffffffffffffffffffff161461038d576040517f08c379a00000000000000000000000000000000000000000000000000000000081526004016103849061136e565b60405180910390fd5b6103a281600454610cba90919063ffffffff16565b60058190555050565b600260009054906101000a900473ffffffffffffffffffffffffffffffffffffffff1681565b60006103ea600554600454610cba90919063ffffffff16565b905090565b600360009054906101000a900473ffffffffffffffffffffffffffffffffffffffff1681565b61041d610cb2565b73ffffffffffffffffffffffffffffffffffffffff1661043b6107f7565b73ffffffffffffffffffffffffffffffffffffffff1614610491576040517f08c379a00000000000000000000000000000000000000000000000000000000081526004016104889061136e565b60405180910390fd5b61049b6000610ce3565b565b6104a5610cb2565b73ffffffffffffffffffffffffffffffffffffffff166104c36107f7565b73ffffffffffffffffffffffffffffffffffffffff1614610519576040517f08c379a00000000000000000000000000000000000000000000000000000000081526004016105109061136e565b60405180910390fd5b61052e81600454610da990919063ffffffff16565b60048190555061054981600554610da990919063ffffffff16565b60058190555050565b60006002600054141561059a576040517f08c379a0000000000000000000000000000000000000000000000000000000008152600401610591906113ae565b60405180910390fd5b60026000819055506105aa610cb2565b73ffffffffffffffffffffffffffffffffffffffff166105c86107f7565b73ffffffffffffffffffffffffffffffffffffffff161461061e576040517f08c379a00000000000000000000000000000000000000000000000000000000081526004016106159061136e565b60405180910390fd5b82600360009054906101000a900473ffffffffffffffffffffffffffffffffffffffff1673ffffffffffffffffffffffffffffffffffffffff166370a08231846040518263ffffffff1660e01b815260040161067a919061128f565b60206040518083038186803b15801561069257600080fd5b505afa1580156106a6573d6000803e3d6000fd5b505050506040513d601f19601f820116820180604052508101906106ca9190610f7f565b101561070b576040517f08c379a00000000000000000000000000000000000000000000000000000000081526004016107029061132e565b60405180910390fd5b600061071c60055460045486610dd2565b905061076f600360009054906101000a900473ffffffffffffffffffffffffffffffffffffffff16600260009054906101000a900473ffffffffffffffffffffffffffffffffffffffff16868487610e0d565b60045481106107b3576040517f08c379a00000000000000000000000000000000000000000000000000000000081526004016107aa9061130e565b60405180910390fd5b80600460008282546107c591906114db565b9250508190555083600560008282546107de91906113fa565b9250508190555080915050600160008190555092915050565b6000600160009054906101000a900473ffffffffffffffffffffffffffffffffffffffff16905090565b610829610cb2565b73ffffffffffffffffffffffffffffffffffffffff166108476107f7565b73ffffffffffffffffffffffffffffffffffffffff161461089d576040517f08c379a00000000000000000000000000000000000000000000000000000000081526004016108949061136e565b60405180910390fd5b6108b281600554610cba90919063ffffffff16565b60048190555050565b60055481565b60006108da600454600554610cba90919063ffffffff16565b905090565b600060026000541415610927576040517f08c379a000000000000000000000000000000000000000000000000000000000815260040161091e906113ae565b60405180910390fd5b6002600081905550610937610cb2565b73ffffffffffffffffffffffffffffffffffffffff166109556107f7565b73ffffffffffffffffffffffffffffffffffffffff16146109ab576040517f08c379a00000000000000000000000000000000000000000000000000000000081526004016109a29061136e565b60405180910390fd5b82600260009054906101000a900473ffffffffffffffffffffffffffffffffffffffff1673ffffffffffffffffffffffffffffffffffffffff166370a08231846040518263ffffffff1660e01b8152600401610a07919061128f565b60206040518083038186803b158015610a1f57600080fd5b505afa158015610a33573d6000803e3d6000fd5b505050506040513d601f19601f82011682018060405250810190610a579190610f7f565b1015610a98576040517f08c379a0000000000000000000000000000000000000000000000000000000008152600401610a8f9061138e565b60405180910390fd5b6000610aa960045460055486610dd2565b9050610afc600260009054906101000a900473ffffffffffffffffffffffffffffffffffffffff16600360009054906101000a900473ffffffffffffffffffffffffffffffffffffffff16868487610e0d565b6005548110610b40576040517f08c379a0000000000000000000000000000000000000000000000000000000008152600401610b379061134e565b60405180910390fd5b8360046000828254610b5291906113fa565b925050819055508060056000828254610b6b91906114db565b9250508190555080915050600160008190555092915050565b6000610b9560055460045484610dd2565b9050919050565b6000610bad60045460055484610dd2565b9050919050565b60045481565b610bc2610cb2565b73ffffffffffffffffffffffffffffffffffffffff16610be06107f7565b73ffffffffffffffffffffffffffffffffffffffff1614610c36576040517f08c379a0000000000000000000000000000000000000000000000000000000008152600401610c2d9061136e565b60405180910390fd5b600073ffffffffffffffffffffffffffffffffffffffff168173ffffffffffffffffffffffffffffffffffffffff161415610ca6576040517f08c379a0000000000000000000000000000000000000000000000000000000008152600401610c9d906112ee565b60405180910390fd5b610caf81610ce3565b50565b600033905090565b60008183670de0b6b3a7640000610cd19190611481565b610cdb9190611450565b905092915050565b6000600160009054906101000a900473ffffffffffffffffffffffffffffffffffffffff16905081600160006101000a81548173ffffffffffffffffffffffffffffffffffffffff021916908373ffffffffffffffffffffffffffffffffffffffff1602179055508173ffffffffffffffffffffffffffffffffffffffff168173ffffffffffffffffffffffffffffffffffffffff167f8be0079c531659141344cd1fd0a4f28419497f9722a3daafe3b4186f6b6457e060405160405180910390a35050565b6000670de0b6b3a76400008284610dc09190611481565b610dca9190611450565b905092915050565b6000610e048285610de391906113fa565b610df68486610da990919063ffffffff16565b610cba90919063ffffffff16565b90509392505050565b8473ffffffffffffffffffffffffffffffffffffffff16639dc29fac82856040518363ffffffff1660e01b8152600401610e489291906112aa565b600060405180830381600087803b158015610e6257600080fd5b505af1158015610e76573d6000803e3d6000fd5b505050508373ffffffffffffffffffffffffffffffffffffffff166340c10f1982846040518363ffffffff1660e01b8152600401610eb59291906112aa565b600060405180830381600087803b158015610ecf57600080fd5b505af1158015610ee3573d6000803e3d6000fd5b505050505050505050565b600081359050610efd816115cd565b92915050565b600081359050610f12816115e4565b92915050565b600081519050610f27816115e4565b92915050565b600060208284031215610f3f57600080fd5b6000610f4d84828501610eee565b91505092915050565b600060208284031215610f6857600080fd5b6000610f7684828501610f03565b91505092915050565b600060208284031215610f9157600080fd5b6000610f9f84828501610f18565b91505092915050565b60008060408385031215610fbb57600080fd5b6000610fc985828601610f03565b9250506020610fda85828601610eee565b9150509250929050565b610fed8161150f565b82525050565b610ffc8161154b565b82525050565b600061100f6026836113e9565b91507f4f776e61626c653a206e6577206f776e657220697320746865207a65726f206160008301527f64647265737300000000000000000000000000000000000000000000000000006020830152604082019050919050565b60006110756027836113e9565b91507f526573756c74696e67207377617020616d6f756e74206c61726765642074686160008301527f6e2076706f6f6c000000000000000000000000000000000000000000000000006020830152604082019050919050565b60006110db6021836113e9565b91507f4e6f7420656e6f75676820746f6b656e204220666f722074686973207377617060008301527f2e000000000000000000000000000000000000000000000000000000000000006020830152604082019050919050565b60006111416027836113e9565b91507f526573756c74696e67207377617020616d6f756e74206c61726765722074686160008301527f6e2076706f6f6c000000000000000000000000000000000000000000000000006020830152604082019050919050565b60006111a76020836113e9565b91507f4f776e61626c653a2063616c6c6572206973206e6f7420746865206f776e65726000830152602082019050919050565b60006111e76021836113e9565b91507f4e6f7420656e6f75676820746f6b656e204120666f722074686973207377617060008301527f2e000000000000000000000000000000000000000000000000000000000000006020830152604082019050919050565b600061124d601f836113e9565b91507f5265656e7472616e637947756172643a207265656e7472616e742063616c6c006000830152602082019050919050565b61128981611541565b82525050565b60006020820190506112a46000830184610fe4565b92915050565b60006040820190506112bf6000830185610fe4565b6112cc6020830184611280565b9392505050565b60006020820190506112e86000830184610ff3565b92915050565b6000602082019050818103600083015261130781611002565b9050919050565b6000602082019050818103600083015261132781611068565b9050919050565b60006020820190508181036000830152611347816110ce565b9050919050565b6000602082019050818103600083015261136781611134565b9050919050565b600060208201905081810360008301526113878161119a565b9050919050565b600060208201905081810360008301526113a7816111da565b9050919050565b600060208201905081810360008301526113c781611240565b9050919050565b60006020820190506113e36000830184611280565b92915050565b600082825260208201905092915050565b600061140582611541565b915061141083611541565b9250827fffffffffffffffffffffffffffffffffffffffffffffffffffffffffffffffff038211156114455761144461156f565b5b828201905092915050565b600061145b82611541565b915061146683611541565b9250826114765761147561159e565b5b828204905092915050565b600061148c82611541565b915061149783611541565b9250817fffffffffffffffffffffffffffffffffffffffffffffffffffffffffffffffff04831182151516156114d0576114cf61156f565b5b828202905092915050565b60006114e682611541565b91506114f183611541565b9250828210156115045761150361156f565b5b828203905092915050565b600061151a82611521565b9050919050565b600073ffffffffffffffffffffffffffffffffffffffff82169050919050565b6000819050919050565b60006115568261155d565b9050919050565b600061156882611521565b9050919050565b7f4e487b7100000000000000000000000000000000000000000000000000000000600052601160045260246000fd5b7f4e487b7100000000000000000000000000000000000000000000000000000000600052601260045260246000fd5b6115d68161150f565b81146115e157600080fd5b50565b6115ed81611541565b81146115f857600080fd5b5056fea2646970667358221220de963a803cc0ee009932e69dc4ff4ed352cc49a8ef2d41da77fc1ba9f00d497764736f6c63430008000033",
  "linkReferences": {},
  "deployedLinkReferences": {}
}