{
  "_format": "hh-sol-artifact-1",
  "contractName": "VirtualPool",
  "sourceName": "contracts/VirtualPool.sol",
  "abi": [
    {
      "inputs": [
        {
          "internalType": "contract ERC20MintableBurnable",
          "name": "tokenA_",
          "type": "address"
        },
        {
          "internalType": "contract ERC20MintableBurnable",
          "name": "tokenB_",
          "type": "address"
        },
        {
          "internalType": "uint256",
          "name": "dPoolSizeA",
          "type": "uint256"
        },
        {
          "internalType": "uint256",
          "name": "dPoolSizeB",
          "type": "uint256"
        }
      ],
      "stateMutability": "nonpayable",
      "type": "constructor"
    },
    {
      "anonymous": false,
      "inputs": [
        {
          "indexed": true,
          "internalType": "address",
          "name": "previousOwner",
          "type": "address"
        },
        {
          "indexed": true,
          "internalType": "address",
          "name": "newOwner",
          "type": "address"
        }
      ],
      "name": "OwnershipTransferred",
      "type": "event"
    },
    {
      "inputs": [],
      "name": "owner",
      "outputs": [
        {
          "internalType": "address",
          "name": "",
          "type": "address"
        }
      ],
      "stateMutability": "view",
      "type": "function"
    },
    {
      "inputs": [],
      "name": "poolSizeA",
      "outputs": [
        {
          "internalType": "uint256",
          "name": "",
          "type": "uint256"
        }
      ],
      "stateMutability": "view",
      "type": "function"
    },
    {
      "inputs": [],
      "name": "poolSizeB",
      "outputs": [
        {
          "internalType": "uint256",
          "name": "",
          "type": "uint256"
        }
      ],
      "stateMutability": "view",
      "type": "function"
    },
    {
      "inputs": [
        {
          "internalType": "uint256",
          "name": "dAmountA",
          "type": "uint256"
        }
      ],
      "name": "previewSwapAB",
      "outputs": [
        {
          "internalType": "uint256",
          "name": "",
          "type": "uint256"
        }
      ],
      "stateMutability": "view",
      "type": "function"
    },
    {
      "inputs": [
        {
          "internalType": "uint256",
          "name": "dAmountB",
          "type": "uint256"
        }
      ],
      "name": "previewSwapBA",
      "outputs": [
        {
          "internalType": "uint256",
          "name": "",
          "type": "uint256"
        }
      ],
      "stateMutability": "view",
      "type": "function"
    },
    {
      "inputs": [],
      "name": "priceA",
      "outputs": [
        {
          "internalType": "uint256",
          "name": "",
          "type": "uint256"
        }
      ],
      "stateMutability": "view",
      "type": "function"
    },
    {
      "inputs": [],
      "name": "priceB",
      "outputs": [
        {
          "internalType": "uint256",
          "name": "",
          "type": "uint256"
        }
      ],
      "stateMutability": "view",
      "type": "function"
    },
    {
      "inputs": [],
      "name": "renounceOwnership",
      "outputs": [],
      "stateMutability": "nonpayable",
      "type": "function"
    },
    {
      "inputs": [
        {
          "internalType": "uint256",
          "name": "dFactor",
          "type": "uint256"
        }
      ],
      "name": "scalePools",
      "outputs": [],
      "stateMutability": "nonpayable",
      "type": "function"
    },
    {
      "inputs": [
        {
          "internalType": "uint256",
          "name": "dPrice",
          "type": "uint256"
        }
      ],
      "name": "setPriceA",
      "outputs": [],
      "stateMutability": "nonpayable",
      "type": "function"
    },
    {
      "inputs": [
        {
          "internalType": "uint256",
          "name": "dPrice",
          "type": "uint256"
        }
      ],
      "name": "setPriceB",
      "outputs": [],
      "stateMutability": "nonpayable",
      "type": "function"
    },
    {
      "inputs": [
        {
          "internalType": "uint256",
          "name": "dAmountA",
          "type": "uint256"
        },
        {
          "internalType": "address",
          "name": "sender",
          "type": "address"
        }
      ],
      "name": "swapAB",
      "outputs": [
        {
          "internalType": "uint256",
          "name": "",
          "type": "uint256"
        }
      ],
      "stateMutability": "nonpayable",
      "type": "function"
    },
    {
      "inputs": [
        {
          "internalType": "uint256",
          "name": "dAmountB",
          "type": "uint256"
        },
        {
          "internalType": "address",
          "name": "sender",
          "type": "address"
        }
      ],
      "name": "swapBA",
      "outputs": [
        {
          "internalType": "uint256",
          "name": "",
          "type": "uint256"
        }
      ],
      "stateMutability": "nonpayable",
      "type": "function"
    },
    {
      "inputs": [],
      "name": "tokenA",
      "outputs": [
        {
          "internalType": "contract ERC20MintableBurnable",
          "name": "",
          "type": "address"
        }
      ],
      "stateMutability": "view",
      "type": "function"
    },
    {
      "inputs": [],
      "name": "tokenB",
      "outputs": [
        {
          "internalType": "contract ERC20MintableBurnable",
          "name": "",
          "type": "address"
        }
      ],
      "stateMutability": "view",
      "type": "function"
    },
    {
      "inputs": [
        {
          "internalType": "address",
          "name": "newOwner",
          "type": "address"
        }
      ],
      "name": "transferOwnership",
      "outputs": [],
      "stateMutability": "nonpayable",
      "type": "function"
    }
  ],
  "bytecode": "0x60806040523480156200001157600080fd5b5060405162001928380380620019288339818101604052810190620000379190620001f5565b60016000819055506200005f62000053620000f960201b60201c565b6200010160201b60201c565b83600260006101000a81548173ffffffffffffffffffffffffffffffffffffffff021916908373ffffffffffffffffffffffffffffffffffffffff16021790555082600360006101000a81548173ffffffffffffffffffffffffffffffffffffffff021916908373ffffffffffffffffffffffffffffffffffffffff160217905550816004819055508060058190555050505050620002e7565b600033905090565b6000600160009054906101000a900473ffffffffffffffffffffffffffffffffffffffff16905081600160006101000a81548173ffffffffffffffffffffffffffffffffffffffff021916908373ffffffffffffffffffffffffffffffffffffffff1602179055508173ffffffffffffffffffffffffffffffffffffffff168173ffffffffffffffffffffffffffffffffffffffff167f8be0079c531659141344cd1fd0a4f28419497f9722a3daafe3b4186f6b6457e060405160405180910390a35050565b600081519050620001d881620002b3565b92915050565b600081519050620001ef81620002cd565b92915050565b600080600080608085870312156200020c57600080fd5b60006200021c87828801620001c7565b94505060206200022f87828801620001c7565b93505060406200024287828801620001de565b92505060606200025587828801620001de565b91505092959194509250565b60006200026e8262000289565b9050919050565b6000620002828262000261565b9050919050565b600073ffffffffffffffffffffffffffffffffffffffff82169050919050565b6000819050919050565b620002be8162000275565b8114620002ca57600080fd5b50565b620002d881620002a9565b8114620002e457600080fd5b50565b61163180620002f76000396000f3fe608060405234801561001057600080fd5b50600436106101005760003560e01c80639f41b18411610097578063cad228e411610066578063cad228e414610277578063d9c5bb29146102a7578063e22dde2f146102d7578063f2fde38b146102f557610100565b80639f41b184146101ef578063a6841c8c1461020b578063b635356714610229578063cad0596e1461024757610100565b8063715018a6116100d3578063715018a61461017b578063775cd042146101855780637e1ea6d6146101a15780638da5cb5b146101d157610100565b8063083e5302146101055780630fc63d101461012157806358e60fca1461013f5780635f64b55b1461015d575b600080fd5b61011f600480360381019061011a9190610f56565b610311565b005b6101296103ab565b60405161013691906112d3565b60405180910390f35b6101476103d1565b60405161015491906113ce565b60405180910390f35b6101656103ef565b60405161017291906112d3565b60405180910390f35b610183610415565b005b61019f600480360381019061019a9190610f56565b61049d565b005b6101bb60048036038101906101b69190610fa8565b610552565b6040516101c891906113ce565b60405180910390f35b6101d96107f7565b6040516101e6919061128f565b60405180910390f35b61020960048036038101906102049190610f56565b610821565b005b6102136108bb565b60405161022091906113ce565b60405180910390f35b6102316108c1565b60405161023e91906113ce565b60405180910390f35b610261600480360381019061025c9190610fa8565b6108df565b60405161026e91906113ce565b60405180910390f35b610291600480360381019061028c9190610f56565b610b84565b60405161029e91906113ce565b60405180910390f35b6102c160048036038101906102bc9190610f56565b610b9c565b6040516102ce91906113ce565b60405180910390f35b6102df610bb4565b6040516102ec91906113ce565b60405180910390f35b61030f600480360381019061030a9190610f2d565b610bba565b005b610319610cb2565b73ffffffffffffffffffffffffffffffffffffffff166103376107f7565b73ffffffffffffffffffffffffffffffffffffffff161461038d576040517f08c379a00000000000000000000000000000000000000000000000000000000081526004016103849061136e565b60405180910390fd5b6103a281600454610cba90919063ffffffff16565b60058190555050565b600260009054906101000a900473ffffffffffffffffffffffffffffffffffffffff1681565b60006103ea600554600454610cba90919063ffffffff16565b905090565b600360009054906101000a900473ffffffffffffffffffffffffffffffffffffffff1681565b61041d610cb2565b73ffffffffffffffffffffffffffffffffffffffff1661043b6107f7565b73ffffffffffffffffffffffffffffffffffffffff1614610491576040517f08c379a00000000000000000000000000000000000000000000000000000000081526004016104889061136e565b60405180910390fd5b61049b6000610ce3565b565b6104a5610cb2565b73ffffffffffffffffffffffffffffffffffffffff166104c36107f7565b73ffffffffffffffffffffffffffffffffffffffff1614610519576040517f08c379a00000000000000000000000000000000000000000000000000000000081526004016105109061136e565b60405180910390fd5b61052e81600454610da990919063ffffffff16565b60048190555061054981600554610da990919063ffffffff16565b60058190555050565b60006002600054141561059a576040517f08c379a0000000000000000000000000000000000000000000000000000000008152600401610591906113ae565b60405180910390fd5b60026000819055506105aa610cb2565b73ffffffffffffffffffffffffffffffffffffffff166105c86107f7565b73ffffffffffffffffffffffffffffffffffffffff161461061e576040517f08c379a00000000000000000000000000000000000000000000000000000000081526004016106159061136e565b60405180910390fd5b82600360009054906101000a900473ffffffffffffffffffffffffffffffffffffffff1673ffffffffffffffffffffffffffffffffffffffff166370a08231846040518263ffffffff1660e01b815260040161067a919061128f565b60206040518083038186803b15801561069257600080fd5b505afa1580156106a6573d6000803e3d6000fd5b505050506040513d601f19601f820116820180604052508101906106ca9190610f7f565b101561070b576040517f08c379a00000000000000000000000000000000000000000000000000000000081526004016107029061132e565b60405180910390fd5b600061071c60055460045486610dd2565b905061076f600360009054906101000a900473ffffffffffffffffffffffffffffffffffffffff16600260009054906101000a900473ffffffffffffffffffffffffffffffffffffffff16868487610e0d565b60045481106107b3576040517f08c379a00000000000000000000000000000000000000000000000000000000081526004016107aa9061130e565b60405180910390fd5b80600460008282546107c591906114db565b9250508190555083600560008282546107de91906113fa565b9250508190555080915050600160008190555092915050565b6000600160009054906101000a900473ffffffffffffffffffffffffffffffffffffffff16905090565b610829610cb2565b73ffffffffffffffffffffffffffffffffffffffff166108476107f7565b73ffffffffffffffffffffffffffffffffffffffff161461089d576040517f08c379a00000000000000000000000000000000000000000000000000000000081526004016108949061136e565b60405180910390fd5b6108b281600554610cba90919063ffffffff16565b60048190555050565b60055481565b60006108da600454600554610cba90919063ffffffff16565b905090565b600060026000541415610927576040517f08c379a000000000000000000000000000000000000000000000000000000000815260040161091e906113ae565b60405180910390fd5b6002600081905550610937610cb2565b73ffffffffffffffffffffffffffffffffffffffff166109556107f7565b73ffffffffffffffffffffffffffffffffffffffff16146109ab576040517f08c379a00000000000000000000000000000000000000000000000000000000081526004016109a29061136e565b60405180910390fd5b82600260009054906101000a900473ffffffffffffffffffffffffffffffffffffffff1673ffffffffffffffffffffffffffffffffffffffff166370a08231846040518263ffffffff1660e01b8152600401610a07919061128f565b60206040518083038186803b158015610a1f57600080fd5b505afa158015610a33573d6000803e3d6000fd5b505050506040513d601f19601f82011682018060405250810190610a579190610f7f565b1015610a98576040517f08c379a0000000000000000000000000000000000000000000000000000000008152600401610a8f9061138e565b60405180910390fd5b6000610aa960045460055486610dd2565b9050610afc600260009054906101000a900473ffffffffffffffffffffffffffffffffffffffff16600360009054906101000a900473ffffffffffffffffffffffffffffffffffffffff16868487610e0d565b6005548110610b40576040517f08c379a0000000000000000000000000000000000000000000000000000000008152600401610b379061134e565b60405180910390fd5b8360046000828254610b5291906113fa565b925050819055508060056000828254610b6b91906114db565b9250508190555080915050600160008190555092915050565b6000610b9560055460045484610dd2565b9050919050565b6000610bad60045460055484610dd2565b9050919050565b60045481565b610bc2610cb2565b73ffffffffffffffffffffffffffffffffffffffff16610be06107f7565b73ffffffffffffffffffffffffffffffffffffffff1614610c36576040517f08c379a0000000000000000000000000000000000000000000000000000000008152600401610c2d9061136e565b60405180910390fd5b600073ffffffffffffffffffffffffffffffffffffffff168173ffffffffffffffffffffffffffffffffffffffff161415610ca6576040517f08c379a0000000000000000000000000000000000000000000000000000000008152600401610c9d906112ee565b60405180910390fd5b610caf81610ce3565b50565b600033905090565b60008183670de0b6b3a7640000610cd19190611481565b610cdb9190611450565b905092915050565b6000600160009054906101000a900473ffffffffffffffffffffffffffffffffffffffff16905081600160006101000a81548173ffffffffffffffffffffffffffffffffffffffff021916908373ffffffffffffffffffffffffffffffffffffffff1602179055508173ffffffffffffffffffffffffffffffffffffffff168173ffffffffffffffffffffffffffffffffffffffff167f8be0079c531659141344cd1fd0a4f28419497f9722a3daafe3b4186f6b6457e060405160405180910390a35050565b6000670de0b6b3a76400008284610dc09190611481565b610dca9190611450565b905092915050565b6000610e048285610de391906113fa565b610df68486610da990919063ffffffff16565b610cba90919063ffffffff16565b90509392505050565b8473ffffffffffffffffffffffffffffffffffffffff16639dc29fac82856040518363ffffffff1660e01b8152600401610e489291906112aa565b600060405180830381600087803b158015610e6257600080fd5b505af1158015610e76573d6000803e3d6000fd5b505050508373ffffffffffffffffffffffffffffffffffffffff166340c10f1982846040518363ffffffff1660e01b8152600401610eb59291906112aa565b600060405180830381600087803b158015610ecf57600080fd5b505af1158015610ee3573d6000803e3d6000fd5b505050505050505050565b600081359050610efd816115cd565b92915050565b600081359050610f12816115e4565b92915050565b600081519050610f27816115e4565b92915050565b600060208284031215610f3f57600080fd5b6000610f4d84828501610eee565b91505092915050565b600060208284031215610f6857600080fd5b6000610f7684828501610f03565b91505092915050565b600060208284031215610f9157600080fd5b6000610f9f84828501610f18565b91505092915050565b60008060408385031215610fbb57600080fd5b6000610fc985828601610f03565b9250506020610fda85828601610eee565b9150509250929050565b610fed8161150f565b82525050565b610ffc8161154b565b82525050565b600061100f6026836113e9565b91507f4f776e61626c653a206e6577206f776e657220697320746865207a65726f206160008301527f64647265737300000000000000000000000000000000000000000000000000006020830152604082019050919050565b60006110756027836113e9565b91507f526573756c74696e67207377617020616d6f756e74206c61726765642074686160008301527f6e2076706f6f6c000000000000000000000000000000000000000000000000006020830152604082019050919050565b60006110db6021836113e9565b91507f4e6f7420656e6f75676820746f6b656e204220666f722074686973207377617060008301527f2e000000000000000000000000000000000000000000000000000000000000006020830152604082019050919050565b60006111416027836113e9565b91507f526573756c74696e67207377617020616d6f756e74206c61726765722074686160008301527f6e2076706f6f6c000000000000000000000000000000000000000000000000006020830152604082019050919050565b60006111a76020836113e9565b91507f4f776e61626c653a2063616c6c6572206973206e6f7420746865206f776e65726000830152602082019050919050565b60006111e76021836113e9565b91507f4e6f7420656e6f75676820746f6b656e204120666f722074686973207377617060008301527f2e000000000000000000000000000000000000000000000000000000000000006020830152604082019050919050565b600061124d601f836113e9565b91507f5265656e7472616e637947756172643a207265656e7472616e742063616c6c006000830152602082019050919050565b61128981611541565b82525050565b60006020820190506112a46000830184610fe4565b92915050565b60006040820190506112bf6000830185610fe4565b6112cc6020830184611280565b9392505050565b60006020820190506112e86000830184610ff3565b92915050565b6000602082019050818103600083015261130781611002565b9050919050565b6000602082019050818103600083015261132781611068565b9050919050565b60006020820190508181036000830152611347816110ce565b9050919050565b6000602082019050818103600083015261136781611134565b9050919050565b600060208201905081810360008301526113878161119a565b9050919050565b600060208201905081810360008301526113a7816111da565b9050919050565b600060208201905081810360008301526113c781611240565b9050919050565b60006020820190506113e36000830184611280565b92915050565b600082825260208201905092915050565b600061140582611541565b915061141083611541565b9250827fffffffffffffffffffffffffffffffffffffffffffffffffffffffffffffffff038211156114455761144461156f565b5b828201905092915050565b600061145b82611541565b915061146683611541565b9250826114765761147561159e565b5b828204905092915050565b600061148c82611541565b915061149783611541565b9250817fffffffffffffffffffffffffffffffffffffffffffffffffffffffffffffffff04831182151516156114d0576114cf61156f565b5b828202905092915050565b60006114e682611541565b91506114f183611541565b9250828210156115045761150361156f565b5b828203905092915050565b600061151a82611521565b9050919050565b600073ffffffffffffffffffffffffffffffffffffffff82169050919050565b6000819050919050565b60006115568261155d565b9050919050565b600061156882611521565b9050919050565b7f4e487b7100000000000000000000000000000000000000000000000000000000600052601160045260246000fd5b7f4e487b7100000000000000000000000000000000000000000000000000000000600052601260045260246000fd5b6115d68161150f565b81146115e157600080fd5b50565b6115ed81611541565b81146115f857600080fd5b5056fea2646970667358221220de963a803cc0ee009932e69dc4ff4ed352cc49a8ef2d41da77fc1ba9f00d497764736f6c63430008000033",
  "linkReferences": {},
  "deployedLinkReferences": {}
}